S01600004652444D2D4B4C32355A2D554152542E6865785F
S113000000300020C10900006109000061090000FE
S113001000000000000000000000000000000000DC
S11300200000000000000000000000006109000062
S113003000000000000000006109000061090000E8
S11300406109000061090000610900006109000004
S113005061090000610900006109000061090000F4
S113006061090000610900006109000061090000E4
S11300701522000061090000610900006109000007
S113008061090000610900006109000061090000C4
S11300906109000061090000111F000061090000EE
S11300A061090000610900006109000061090000A4
S11300B06109000061090000610900006109000094
S1130800002934D00123002210B488422CD30124BF
S11308102407A14204D2814202D209011B01F8E754
S1130820E400A14204D2814202D249005B00F8E70D
S1130830884201D3401A1A434C08A04202D3001B39
S11308405C0822438C08A04202D3001B9C0822436C
S1130850CC08A04202D3001BDC082243002803D0AA
S11308601B0901D00909E3E7101C10BC70470028DC
S113087001D00020C04307B4024802A140180290EE
S113088003BDC046D90000000029F0D003B5FFF72E
S1130890B9FF0EBC4243891A1847C046002941D00B
S11308A010B4041C4C40A44601230022002900D5A6
S11308B04942002800D5404288422CD30124240711
S11308C0A14204D2814202D209011B01F8E7E400EB
S11308D0A14204D2814202D249005B00F8E7884277
S11308E001D3401A1A434C08A04202D3001B5C08EF
S11308F022438C08A04202D3001B9C082243CC084C
S1130900A04202D3001BDC082243002803D01B09A9
S113091001D00909E3E7101C6446002C00D54042CD
S113092010BC7047002806D003DB0020C0434008F9
S113093001E08020000607B4024802A1401802909A
S113094003BDC046190000000029EBD003B5FFF732
S1130950A7FF0EBC4243891A1847C0467047C046D9
S113096080B500AF00BEBD4680BDC04680B500AFB7
S1130970064A0749074BD150074A88235B010021E7
S1130980D15001F0B7FCBD4680BDC04600E000E098
S113099000000000080D00000070044080B500AFA6
S11309A0054A064BD31A054A101C00211A1C01F0F3
S11309B02FFEBD4680BDC04668F0FF1F00F0FF1F3C
S11309C001F0B8FEFFF7D2FFFFF7E8FF01F0E6FE03
S11309D001F064FE01F0BCFE044B0020191C01F080
S11309E0A9FD031C181C01F0F7FDC04600F0FF1F11
S11309F080B582B000AF7860FEE7C04680B500AF36
S1130A00002005210122002300F022FD0020042102
S1130A100122002300F01CFD00200C2101220023F0
S1130A2000F016FD032004210122002300F010FD34
S1130A30032005210022012300F00AFDBD4680BDEC
S1130A4080B584B000AF021CFB1D1A703B1C0E3332
S1130A5000221A80FB1D1B78072B00D964E19A0041
S1130A60BE4BD3181B689F4600200521002200F0CE
S1130A7075FE00200521002200F070FE00200521F3
S1130A80002200F06BFE03200421002200F066FE29
S1130A903B1C0E3300221A8006E03B1C0E333A1C2A
S1130AA00E32128801321A803B1C0E331B88632BD2
S1130AB0F3D90320052100F023FF031CDBB249E135
S1130AC000200521012200F049FE0020052100221A
S1130AD000F044FE00200521002200F03FFE032028
S1130AE00421002200F03AFE3B1C0E3300221A803F
S1130AF006E03B1C0E333A1C0E32128801321A8077
S1130B003B1C0E331B88632BF3D90320052100F013
S1130B10F7FE031CDBB21DE100200521002200F0DA
S1130B201DFE00200521012200F018FE00200521F1
S1130B30002200F013FE03200421002200F00EFE28
S1130B403B1C0E3300221A8006E03B1C0E333A1C79
S1130B500E32128801321A803B1C0E331B88632B21
S1130B60F3D90320052100F0CBFE031CDBB2F1E036
S1130B7000200521012200F0F1FD002005210122C1
S1130B8000F0ECFD00200521002200F0E7FD032029
S1130B900421002200F0E2FD3B1C0E3300221A80E7
S1130BA006E03B1C0E333A1C0E32128801321A80C6
S1130BB03B1C0E331B88632BF3D90320052100F063
S1130BC09FFE031CDBB2C5E000200521002200F0DB
S1130BD0C5FD00200521002200F0C0FD00200521F4
S1130BE0012200F0BBFD03200421002200F0B6FD29
S1130BF03B1C0E3300221A8006E03B1C0E333A1CC9
S1130C000E32128801321A803B1C0E331B88632B70
S1130C10F3D90320052100F073FE031CDBB299E035
S1130C2000200521012200F099FD00200521002269
S1130C3000F094FD00200521012200F08FFD032027
S1130C400421002200F08AFD3B1C0E3300221A808E
S1130C5006E03B1C0E333A1C0E32128801321A8015
S1130C603B1C0E331B88632BF3D90320052100F0B2
S1130C7047FE031CDBB26DE000200521002200F0DA
S1130C806DFD00200521012200F068FD00200521F2
S1130C90012200F063FD03200421002200F05EFD28
S1130CA03B1C0E3300221A8006E03B1C0E333A1C18
S1130CB00E32128801321A803B1C0E331B88632BC0
S1130CC0F3D90320052100F01BFE031CDBB241E035
S1130CD000200521012200F041FD00200521012210
S1130CE000F03CFD00200521012200F037FD032027
S1130CF00421002200F032FD3B1C0E3300221A8036
S1130D0006E03B1C0E333A1C0E32128801321A8064
S1130D103B1C0E331B88632BF3D90320052100F001
S1130D20EFFD031CDBB215E000200521002200F0DA
S1130D3015FD00200521002200F010FD00200521F2
S1130D40002200F00BFD03200421012200F006FD27
S1130D50C046FFE7181CBD4604B080BD142800003F
S1130D6080B500AF042001210122002300F070FBB4
S1130D70042000210122002300F06AFB032001214A
S1130D800122002300F064FB03200321012200233D
S1130D9000F05EFB032002210122002300F058FB37
S1130DA0032000210122002300F052FBBD4680BD38
S1130DB080B582B000AF021CFB1D1A70FB1D1B78AE
S1130DC0012B05D104200121012200F0C7FC04E01D
S1130DD004200121002200F0C1FCBD4602B080BD08
S1130DE080B582B000AF021CFB1D1A70FB1D1B787E
S1130DF0012B05D104200021012200F0AFFC04E006
S1130E0004200021002200F0A9FCBD4602B080BDF0
S1130E1080B582B000AF021CFB1D1A70FB1D1B784D
S1130E20012B05D103200121012200F097FC04E0ED
S1130E3003200121002200F091FCBD4602B080BDD8
S1130E4080B582B000AF021CFB1D1A70FB1D1B781D
S1130E50012B05D103200321012200F07FFC04E0D3
S1130E6003200321002200F079FCBD4602B080BDBE
S1130E7080B582B000AF0A1CFB1D011C1970BB1D9C
S1130E801A70FB1D1B78012B19D1BB1D1B78012B7C
S1130E900AD103200221002200F060FC032000217B
S1130EA0002200F05BFC14E003200221012200F088
S1130EB055FC03200021012200F050FC09E003202E
S1130EC00221012200F04AFC03200021002200F04C
S1130ED045FCBD4602B080BD80B582B000AFFB1DAD
S1130EE000221A70012000F0C3F9031C012B00D06A
S1130EF094E00120002100F0C7F800F095F8031CED
S1130F00012B29D0022B49D0002B69D1454B5B2200
S1130F101A7000F089F8031C3033DAB2414B5A706E
S1130F20404B5D229A70FB1D00221A700BE0FB1DE2
S1130F301B783C4AD35C181C00F094F8FB1DFA1D86
S1130F40127801321A70FB1D1B78022BEFD9022094
S1130F50012100F099F861E0324B5B221A7000F035
S1130F6063F8031C3033DAB22E4B5A702D4B5D22DA
S1130F709A70FB1D00221A700BE0FB1D1B78294A96
S1130F80D35C181C00F06EF8FB1DFA1D12780132B8
S1130F901A70FB1D1B78022BEFD93FE0214B5B221B
S1130FA01A7000F041F8031C3033DAB21D4B5A704A
S1130FB01C4B5D229A70FB1D00221A700BE0FB1D76
S1130FC01B78184AD35C181C00F04CF8FB1DFA1D62
S1130FD0127801321A70FB1D1B78022BEFD91DE029
S1130FE0104B5B221A700F4B33225A700D4B5D224B
S1130FF09A70FB1D00221A700BE0FB1D1B78094A36
S1131000D35C181C00F02EF8FB1DFA1D1278013277
S11310101A70FB1D1B78022BEFD9C046BD4602B0E7
S113102080BDC0463CF0FF1F80B500AF024B1B786B
S1131030181CBD4680BDC04604F0FF1F80B582B0B9
S113104000AF786007E07B681B787A6801327A60C9
S1131050181C00F007F87B681B78002BF3D1BD4601
S113106002B080BD80B582B000AF021CFB1D1A70B7
S1131070044AFB1D1B78101C191C01F0B5F8BD4671
S113108002B080BD00A0064080B582B000AF0A1C4B
S1131090FB1D011C1970BB1D1A70FB1D1B78082B4E
S11310A05DD006DC022B2AD0042B40D0012B0ED0BD
S11310B0D9E0202B00D181E002DC102B67D0D2E0F4
S11310C0402B00D191E0802B00D1A5E0CBE0BB1DEB
S11310D01B78012B06D1654B1B7801221343DAB22E
S11310E0624B1A70BB1D1B78002B00D0ACE05F4B29
S11310F01B7801229343DAB25C4B1A70A4E0BB1D47
S11311001B78012B06D1594B1B7802221343DAB208
S1131110564B1A70BB1D1B78002B00D096E0534B26
S11311201B7802229343DAB2504B1A708EE0BB1D37
S11311301B78012B06D14D4B1B7804221343DAB2E2
S11311404A4B1A70BB1D1B78002B00D080E0474B24
S11311501B7804229343DAB2444B1A7078E0BB1D27
S11311601B78012B06D1414B1B7808221343DAB2BA
S11311703E4B1A70BB1D1B78002B00D06AE03B4B22
S11311801B7808229343DAB2384B1A7062E0BB1D15
S11311901B78012B06D1354B1B7810221343DAB28E
S11311A0324B1A70BB1D1B78002B55D12F4B1B786B
S11311B010229343DAB22D4B1A704DE0BB1D1B78FD
S11311C0012B06D1294B1B7820221343DAB2274B7B
S11311D01A70BB1D1B78002B40D1244B1B78202296
S11311E09343DAB2214B1A7038E0BB1D1B78012BF4
S11311F006D11E4B1B7840221343DAB21B4B1A70E4
S1131200BB1D1B78002B2BD1184B1B78402293431A
S1131210DAB2164B1A7023E0BB1D1B78012B07D1E1
S1131220124B1B78802252421343DAB20F4B1A70CE
S1131230BB1D1B78002B15D10C4B1A787F23134050
S1131240DAB20A4B1A700DE0C0460CE0C0460AE060
S1131250C04608E0C04606E0C04604E0C04602E0DE
S1131260C04600E0C046BD4602B080BD05F0FF1F89
S113127080B584B000AF021CFB1D1A70FB1D1B78E7
S1131280082B43D006DC022B20D0042B2ED0012BBC
S11312900CD08BE0202B59D002DC102B46D085E0FB
S11312A0402B63D0802B00D170E07FE0424B197853
S11312B03B1C0F3301220A401A703B1C0F331B786E
S11312C0012B01D1012372E0002370E03A4B19781D
S11312D03B1C0F3302220A401A703B1C0F331B784D
S11312E0022B01D1012362E0002360E0324B197824
S11312F03B1C0F3304220A401A703B1C0F331B782B
S1131300042B01D1012352E0002350E02A4B197829
S11313103B1C0F3308220A401A703B1C0F331B7806
S1131320082B01D1012342E0002340E0224B19782D
S11313303B1C0F3310220A401A703B1C0F331B78DE
S1131340102B01D1012332E0002330E01A4B19782D
S11313503B1C0F3320220A401A703B1C0F331B78AE
S1131360202B01D1012322E0002320E0124B197825
S11313703B1C0F3340220A401A703B1C0F331B786E
S1131380402B01D1012312E0002310E00A4B1A780C
S11313903B1C0F337F218A431A703B1C0F331B788D
S11313A0802B01D1012302E0002300E0FFE7181C99
S11313B0BD4604B080BDC04605F0FF1F80B500AF38
S11313C01D4A1D491D4BCB58A021490119431B4BF4
S11313D0D1501B4B802252009A641A4B194A52680E
S11313E08021C9020A435A60164B164A5269802169
S11313F0C9020A435A61124B80225200DA64114B2B
S1131400104A5268802109030A435A600D4B0D4A61
S11314105269802109030A435A610B4B802252000E
S11314205A600A4B02225A60084B084A5269022148
S11314300A435A61BD4680BD007004403810000064
S113144000A0044040F00F4000C00440C0F00F4032
S113145090B583B000AF041C081C111C1A1CFB1DA2
S11314601C70BB1D18707B1D19703B1D1A70FB1D71
S11314701B78042B00D954E19A00AB4BD3181B689A
S11314809F46AA4AA949AA4BCB58802189001943EF
S1131490A74BD150A74BBA1D127892008021490066
S11314A0D1503B1D1B78012B0BD1A24BBA1D1278D6
S11314B0A049B81D007880004158022001439200E1
S11314C0D1507B1D1B78012B0BD19B4B9A4A516940
S11314D0BA1D12780120041C9440221C0A435A614C
S11314E016E17B1D1B78002B00D011E1924B924A30
S11314F05269B91D09780120041C8C40211CC94380
S11315000A405A6104E1894A8849894BCB588021B1
S1131510C9001943864BD150884BBA1D12789200EA
S113152080214900D1503B1D1B78012B0BD1814BED
S1131530BA1D12787F49B81D0078800041580220F6
S113154001439200D1507B1D1B78012B0BD17C4BA6
S11315507B4A5169BA1D12780120041C9440221C54
S11315600A435A61D6E07B1D1B78002B00D0D1E0E2
S1131570734B734A5269B91D09780120041C8C40CD
S1131580211CC9430A405A61C4E0684A6749684B50
S1131590CB58802109011943654BD150694BBA1DC1
S11315A01278920080214900D1503B1D1B78012BF9
S11315B00BD1604BBA1D12785E49B81D00788000CB
S11315C04158022001439200D1507B1D1B78012B0E
S11315D00BD15D4B5C4A5169BA1D12780120041C81
S11315E09440221C0A435A6196E07B1D1B78002B11
S11315F000D091E0544B544A5269B91D0978012036
S1131600041C8C40211C0A405A6185E0474A474922
S1131610474BCB58802149011943454BD1504B4B83
S1131620BA1D1278920080214900D1503B1D1B78CD
S1131630012B0BD13F4BBA1D12783E49B81D0078DF
S113164080004158022001439200D1507B1D1B7839
S1131650012B0BD13E4B3E4A5169BA1D1278012031
S1131660041C9440221C0A435A6157E07B1D1B78DA
S1131670002B53D1364B364A5269B91D09780120E3
S1131680041C8C40211CC9430A405A6146E0274A85
S11316902649274BCB58802189011943244BD1502B
S11316A02C4BBA1D1278920080214900D1503B1D69
S11316B01B78012B0BD11F4BBA1D12781D49B81D85
S11316C0007880004158022001439200D1507B1DD4
S11316D01B78012B0BD1204B1F4A5169BA1D12787C
S11316E00120041C9440221C0A435A6118E07B1D0B
S11316F01B78002B14D1184B174A5269B91D09786D
S11317000120041C8C40211CC9430A405A6107E093
S1131710C04606E0C04604E0C04602E0C04600E021
S1131720C046BD4603B090BD34280000007004409C
S1131730381000000090044000F00F4000A0044066
S113174040F00F4000B0044080F00F4000C004405F
S1131750C0F00F4000D0044000F10F4090B583B0BA
S113176000AFFB1D1870BB1D19707B1D1A70FB1D8B
S11317701B78042B00D9B4E09A005B4BD3181B6888
S11317809F467B1D1B78012B0BD1584B574A516840
S1131790BA1D12780120041C9440221C0A435A608A
S11317A096E07B1D1B78002B00D091E04F4B4F4AF5
S11317B01268B91D09780120041C8C40211CC943FE
S11317C00A401A6084E07B1D1B78012B0BD1484B27
S11317D0474A5168BA1D12780120041C9440221C07
S11317E00A435A6076E07B1D1B78002B00D071E021
S11317F03F4B3F4A1268B91D09780120041C8C40F4
S1131800211CC9430A401A6064E07B1D1B78012B2C
S11318100BD1384B374A5168BA1D12780120041C89
S11318209440221C0A435A6056E07B1D1B78002B0F
S113183052D1304B2F4A1268B91D09780120041C7B
S11318408C40211CC9430A401A6045E07B1D1B786B
S1131850012B0BD1284B284A5168BA1D127801205C
S1131860041C9440221C0A435A6037E07B1D1B78F9
S1131870002B33D1204B204A1268B91D097801206E
S1131880041C8C40211CC9430A401A6026E07B1DBD
S11318901B78012B0BD1194B184A5168BA1D1278C9
S11318A00120041C9440221C0A435A6018E07B1D4A
S11318B01B78002B14D1114B104A1268B91D0978FA
S11318C00120041C8C40211CC9430A401A6007E013
S11318D0C04606E0C04604E0C04602E0C04600E060
S11318E0C046BD4603B090BD4828000000F00F403C
S11318F040F00F4080F00F40C0F00F4000F10F4067
S113190080B582B000AF0A1CFB1D011C1970BB1D01
S11319101A70FB1D1B78042B45D89A00244BD3184E
S11319201B689F46234B1B699BB2BA1D1278012189
S1131930081C9040021C92B213409BB234E01E4B30
S11319401B699BB2BA1D12780121081C9040021C2D
S113195092B213409BB227E0184B1B699BB2BA1D8D
S113196012780121081C9040021C92B213409BB2D1
S11319701AE0134B1B699BB2BA1D12780121081C93
S11319809040021C92B213409BB20DE00D4B1B69B8
S11319909BB2BA1D12780121081C9040021C92B21D
S11319A013409BB200E0FFE7181CBD4602B080BDA7
S11319B05C28000000F00F4040F00F4080F00F4022
S11319C0C0F00F4000F10F4080B586B000AF7860E2
S11319D0081C111C1A1CFB1C1870BB1C19707B1CE6
S11319E01A70C24B9B79DBB21A1C0C2313409B0860
S11319F00DD1BE4B9B79DBB21A1C1023134006D0C9
S1131A00BA4B9B79DBB21A1C2023134001D001236B
S1131A1073E27A68B64B9A4201DD21236DE2BB1C66
S1131A201B78002B09D07A68B24B9A4203DD7A689E
S1131A30B14B9A4201DD22235FE2FB1C1B78002B91
S1131A4002D0FB1C01221A707B1C1B785BB2002B9A
S1131A5004DD7B1C1B785BB2192B01DD41234CE2B6
S1131A603B1C20331B785BB2172B05DD3B1C20335A
S1131A701B785BB2322B01DD42233EE27B1C1B78D8
S1131A805BB27868191CFEF709FF031C3B613A69D5
S1131A909A4B9A4203DD3A69994B9A4201DD4323FA
S1131AA02BE27B1C1B785BB27868191CFEF7F6FEF0
S1131AB0031C3A1C2032127852B25343FB60FA687A
S1131AC0904B9A4203DDFA688F4B9A4201DD45231D
S1131AD013E2864A3B1C163352781A703B1C1633A9
S1131AE03A1C163212783C218A431A707A68874B62
S1131AF09A4214DCFB1C1B78DB00DAB2BB1C1B789B
S1131B009B00DBB21343DAB23B1C16331B7813433E
S1131B10DAB23B1C163310210A431A7013E0FB1C83
S1131B201B78DB00DAB2BB1C1B789B00DBB21343CF
S1131B30DAB23B1C16331B781343DAB23B1C163360
S1131B4020210A431A70694B3A1C163212785A70D3
S1131B507A686F4B9A4204DC3B1C173300221A70DC
S1131B6027E07A686B4B9A4204DC3B1C1733012252
S1131B701A701EE07A68684B9A4204DC3B1C1733E7
S1131B8002221A7015E07A68644B9A4204DC3B1C0A
S1131B90173303221A700CE07A68614B9A4204DC12
S1131BA03B1C173304221A7003E03B1C1733052235
S1131BB01A704E4A3B1C163312781A703B1C1633AB
S1131BC03A1C1632117803220A401A703B1C173350
S1131BD01B78DB00DAB238231340DAB23B1C16332D
S1131BE01B781343DAB23B1C1633802149420A4363
S1131BF01A703E4B3A1C163212781A70BB1C1B78B2
S1131C00002B24D03B1C143300221A800DE0374BE8
S1131C109B79DBB21A1C022313400ED13B1C1433F4
S1131C203A1C1432128801321A803B1C14330021EE
S1131C305A5E3C4B9A42EADD00E0C0462B4B9B794E
S1131C40DBB21A1C0223134001D1232355E13B1CB0
S1131C50143300221A800DE0244B9B79DBB21A1C4A
S1131C60102313400ED03B1C14333A1C1432128838
S1131C7001321A803B1C143300215A5E2A4B9A42CB
S1131C80EADD00E0C046194B9B79DBB21A1C102335
S1131C90134001D0112330E13B1C143300221A807D
S1131CA00FE0124B9B79DBB21A1C0C2313409B08E8
S1131CB0022B0ED03B1C14333A1C1432128801320E
S1131CC01A803B1C143300215A5E174B9A42E8DDFC
S1131CD000E0C046054B9B79DBB21A1C0C23134071
S1131CE09B08022B22D01A2307E1C046004006407D
S1131CF080F0FA02BFC62D000048E8017F841E0070
S1131D0000093D00FF6BDC0200E1F50500127A00DA
S1131D10D0121300A0252600404B4C00809698005A
S1131D20002D31011F4E0000CF070000754B754A8E
S1131D305279D2B220210A43D2B25A71714A3B1C61
S1131D40163312791A703B1C16333A1C1632127869
S1131D501F218A431A707B1C1B78013BDAB21F23B4
S1131D601340D9B23B1C16333A1C163212780A437C
S1131D701A70644B3A1C163212781A71614A3B1C71
S1131D80163352791A703B1C16333A1C16321278E9
S1131D901F218A431A703B1C20331B78183BDAB28C
S1131DA01F231340DAB23B1C16331B781343DAB2F9
S1131DB03B1C163340210A431A70524B3A1C16320C
S1131DC012785A713B1C143300221A800DE04D4BDB
S1131DD09B79DBB21A1C202313400ED13B1C143315
S1131DE03A1C1432128801321A803B1C143300212D
S1131DF05A5E454B9A42EADD00E0C046414B9B796E
S1131E00DBB21A1C2023134001D1162375E03B1CBE
S1131E10143300221A800DE03A4B9B79DBB21A1C72
S1131E20402313400ED13B1C14333A1C1432128845
S1131E3001321A803B1C143300215A5E334B9A4200
S1131E40EADD00E0C0462F4B9B79DBB21A1C40232D
S1131E50134001D1442350E02A4B1B79DAB21F23EB
S1131E601340DAB23B1C0B3301321A70254B5B79F9
S1131E70DAB21F231340DAB23B1C0A3318321A7049
S1131E80204B204A1278D1B23F220A40D2B21A70B3
S1131E903B1C143300221A800FE01A4B9B79DBB2EF
S1131EA01A1C0C2313409B08032B0ED03B1C143329
S1131EB03A1C1432128801321A803B1C143300215C
S1131EC05A5E114B9A42E8DD00E0C0460D4B9B7907
S1131ED0DBB21A1C0C2313409B08032B01D01B23D9
S1131EE00BE03B1C0B331B787868191CFEF7D6FCFF
S1131EF0031C3A1C0A3212785343181CBD4606B020
S1131F0080BDC04600400640CF0700009F0F000080
S1131F1098B500AF1E4A1E4986235B00CB580121A9
S1131F20194386235B00D1501A4B19685A68012360
S1131F3000245B185441174A13605460164B1B88E5
S1131F4001339AB2144B1A80134B1A88134B9A42DA
S1131F501BD9114B00221A80114B1B781C1C104BEF
S1131F601B78181CFEF76CFD031CDAB20D4B1A55D6
S1131F700B4B1B780133DAB2094B1A70084B1B78F0
S1131F80072B02D9064B00221A70BD4698BDC046E5
S1131F900070034010F0FF1F06F0FF1FE70300006E
S1131FA008F0FF1F44F0FF1F80B58EB000AFF8604B
S1131FB0B9607A6000237B6200233B630023FB62E9
S1131FC000233B620023BB62814A8149814BCB5889
S1131FD08021C90019437F4BD1507F4B7E4AD27870
S1131FE0D2B20C218A43D2B2DA70BA687B4B9A42DD
S1131FF002DCBB681F2B0EDC0023BB60744A784BE9
S1132000D3583B623A6A774B13403B62704A744B35
S1132010396AD150FEE77B68FB61BB68FA22920003
S11320205343BB613B1C373304221A703B1C3733C8
S11320301B78FA695343B869191CFEF7E1FB031CCA
S11320407B613B1C37331B787A695343B869191C8D
S1132050FEF7D6FB031C7B627A6AFB699A4204D9B9
S11320607A6AFB69D31A3B6303E0FA697B6AD31A81
S11320703B633B1C37331B78FB623B1C3733052225
S11320801A7033E03B1C37331B78FA695343B86941
S1132090191CFEF7B5FB031C7B613B1C37331B7813
S11320A07A695343B869191CFEF7AAFB031C7B62C7
S11320B07A6AFB699A4204D97A6AFB69D31ABB62C9
S11320C003E0FA697B6AD31ABB62BA6A3B6B9A4231
S11320D005D8BB6A3B633B1C37331B78FB623B1C54
S11320E037333A1C3732127801321A703B1C3733BB
S11320F01B78202BC6D9FB69181C6421FEF780FBD2
S1132100031C1A1C131C5B009A183B6B9A425BD984
S1132110FB6A032B0AD9FB6A082B07D82E4B2E4ADD
S1132120D27AD2B202210A43D2B2DA722A4B9B7A11
S1132130DBB23B623B6A1F2293433B62FB6ADBB226
S1132140013BDBB21A1C1F2313403A6A13433B6260
S1132150214B3A6AD2B29A723A6A1F23134001336E
S11321603B62FB693A6A5343B869191CFEF748FBA2
S1132170031C7B61184B1B78DBB21F2293433B6229
S1132180154B7969F82252010A40120AD1B21F2272
S11321900A40D1B23A6AD2B20A43D2B21A700E4B92
S11321A07A69D2B25A700C4B0B4AD278D2B220213F
S11321B00A43D2B2DA70084B074AD278D2B20C2161
S11321C00A43D2B2DA7000E0FEE7BD460EB080BD2D
S11321D0007004403410000000A0064050C300000A
S11321E004100000FFFFFFF380B582B000AF7860F9
S11321F00A1CFB1C1A70C0467B681B79DBB2DBB27D
S11322005BB2002BF8DA7B68FA1C1278DA71BD46EF
S113221002B080BD80B582B000AFFB1D00221A70F1
S1132220304B1B79DBB21A1C2023134057D02D4AA4
S1132230FB1DD2791A702B4B1B79DBB2DBB25BB27C
S1132240002B06DB274B1B79DBB21A1C40231340FF
S113225003D0244BFA1D1278DA71FB1D1B785B2B1B
S113226002D1214B00221A70FB1D1B785D2B02D179
S11322701D4B02221A701C4B1B78012B1DD0022B04
S113228028D0002B2BD1194B00221A700AE0174BCF
S11322901B78174A0021D154144B1B780133DAB24E
S11322A0124B1A70114B1B78072BF0D90E4B0122DD
S11322B01A700E4B00221A7011E00C4B1B780C4A5A
S11322C0F91D0978D154094B1B780133DAB2074B55
S11322D01A7004E001200121FEF7D6FEC046BD4677
S11322E002B080BD00A0064018F0FF1F19F0FF1FC8
S11322F034F0FF1F80B582B002AF3D4A3C493D4BEC
S1132300CB58F821890119433A4BD150384A3A4BFA
S113231080214902D150394B1822009201220192A6
S1132320181C002101220423FFF74EFB021C344B2E
S11323301A60334B1B68181CFA239900FEF7AEFA97
S1132340031C1A1C2F4B1A602E4B1B681A1C28499D
S1132350294BCB581B0F0133101C191CFEF750FAE4
S1132360031C1A1C284B1A60274B1B681A1C204993
S1132370214BC958E023DB020B401B0C0133101C1A
S1132380191CFEF73DFA031C1A1C204B1A60184A4C
S113239017491F4BCB588021490219431C4BD1507C
S11323A01C4B802292005A601A4B802292009A6041
S11323B00F4A0F49164BCB588021C9041943144BBB
S11323C0D1500F4B1B68181CFA23D900FEF766FA8C
S11323D0031C1A1C104B1A600F4B1A680F499623E2
S11323E09B01081C111C1A1CFFF7DEFDBD4680BDB5
S11323F000700440381000004410000000127A00FD
S11324004CF0FF1F60F0FF1F50F0FF1F54F0FF1F40
S1132410041000000090044058F0FF1F00A0064084
S113242080B582B000AF78607B68202B01DDC046A8
S113243020E0124A7968124B0B4004D5013B20215D
S113244049420B4301330121081C9840031C191C09
S1132450C0235B00D150094A7968094B0B4004D56D
S1132460013B202149420B4301330121081C9840C0
S1132470031C1360BD4602B080BDC04600E100E00D
S11324801F00008080B584B000AF786039603B1CC9
S11324900F3300221A703B1C0E3300221A703B1CAF
S11324A00D3300221A707B68202B03DD3B1C0F3395
S11324B001221A703B68032B03DD3B1C0F330122FE
S11324C01A703B1C0F331B78012B2CD07B68002B1C
S11324D000DA03339B101A1C3B1C0E331A707A6803
S11324E0124B134004D5013B0422524213430133DF
S11324F01A1C3B1C0D331A703B1C0E331B789B00BB
S11325000B481B18BB60BB681A683B689901FF2322
S113251019403B1C0D331B78DB00081C9840031C3E
S11325201A43BB681A60BD4604B080BD0300008036
S113253000E400E080B582B000AF00237B60FEF7CA
S11325403DFFFEF75BFAFEF70BFC00200021FEF7CF
S11325508FFC0020FEF72CFC0020FEF741FC00203D
S1132560FEF756FC0020FEF76BFC62B60C20FFF76A
S113257057FF0C200221FFF785FF114B181CFEF7B3
S11325805DFD104B181CFEF759FD0F4B181CFEF790
S113259055FD0E4B181CFEF751FD00E0C046FEF73A
S11325A09BFC7B6801337B607A68094B9A42F5DDBA
S11325B0084B80221203DA6000237B60EEE7C046FA
S11325C0D0270000E8270000FC27000010280000A6
S11325D09F86010040F00F4038B5051C00F09CF8C0
S11325E000F080F8084C2368002B02D098470020A4
S11325F02060064C2168002902D08847002222600E
S1132600281CFEF7F5F938BD1CF0FF1F20F0FF1F52
S113261010B5041C00F002F8201C10BD30B5C9B27E
S1132620031C1F2A31D944420323234005D0D21A64
S1132630C51801700130A842FBD1002905D00D0650
S11326400C042C430B02214319435409031C002C92
S11326500ED0251C013D196059609960D96019613B
S113266059619961D9612033002DF3D16301C318F5
S1132670D006400F07D0041C1D1C013C02C5002CD1
S1132680FBD180001B18032422409D18002A03D08C
S113269019700133AB42FBD130BD000010B50B4CB7
S11326A00B4B9C4202D001CC8047F9E7094C0A4805
S11326B0844202D008CC9847F9E7084C08498C4278
S11326C002D004CC9047F9E710BDC0467028000042
S11326D07028000070280000702800007028000096
S11326E07028000010B5084C084B9C4202D004CC62
S11326F09047F9E7064C0748844203D0043C21681C
S11327008847F8E710BDC046702800007028000014
S11327107028000070280000054B10B51C68002CC0
S113272004D0A068616888472468F8E710BDC046F3
S113273024F0FF1F054B181C002805D0854681B0E6
S11327400020C043009001B0F746704700300020DD
S1132750F746704700B588421FD0002A1DD00323D6
S1132760194207D1184205D19A4203D908C9043A3B
S113277008C0F2E70123194209D1184207D19A424D
S113278005D90B88023A038002310230E5E70B7861
S1132790013A037001310130DFE700BD38B50B4D5C
S11327A0002D11D000242B191968002906D02B19EB
S11327B058689A68FFF7CEFF0C34F4E75A68002A89
S11327C0F5D198680028F2D138BDC04670280000C1
S11327D00D0A50726F6A65746F204D6F7374656370
S11327E020323031360000000D0A4B6954206465F4
S11327F0204175746F6D6163616F00000D0A4D6156
S11328007175696E612064652054636861790000A4
S11328100D0A0000680A0000C00A0000180B00003E
S1132820700B0000C80B0000200C0000780C0000A6
S1132830D00C000082140000061500008A15000068
S11328400C1600008E16000082170000C617000048
S11328500A1800004C1800008E180000241900000B
S11328603E19000058190000721900008C1900006C
S11328707028000000F0FF1F0000000000000000AE
S10B288000000000000000004C
S90309C132
