S01600004652444D2D4B4C32355A2D554152542E6865785F
S113000000300020C10900006109000061090000FE
S113001000000000000000000000000000000000DC
S11300200000000000000000000000006109000062
S113003000000000000000006109000061090000E8
S11300406109000061090000610900006109000004
S113005061090000610900006109000061090000F4
S113006061090000610900006109000061090000E4
S1130070C127000061090000610900006109000056
S113008061090000610900006109000061090000C4
S113009061090000610900009D240000610900005D
S11300A061090000610900006109000061090000A4
S11300B06109000061090000610900006109000094
S1130800002934D00123002210B488422CD30124BF
S11308102407A14204D2814202D209011B01F8E754
S1130820E400A14204D2814202D249005B00F8E70D
S1130830884201D3401A1A434C08A04202D3001B39
S11308405C0822438C08A04202D3001B9C0822436C
S1130850CC08A04202D3001BDC082243002803D0AA
S11308601B0901D00909E3E7101C10BC70470028DC
S113087001D00020C04307B4024802A140180290EE
S113088003BDC046D90000000029F0D003B5FFF72E
S1130890B9FF0EBC4243891A1847C046002941D00B
S11308A010B4041C4C40A44601230022002900D5A6
S11308B04942002800D5404288422CD30124240711
S11308C0A14204D2814202D209011B01F8E7E400EB
S11308D0A14204D2814202D249005B00F8E7884277
S11308E001D3401A1A434C08A04202D3001B5C08EF
S11308F022438C08A04202D3001B9C082243CC084C
S1130900A04202D3001BDC082243002803D01B09A9
S113091001D00909E3E7101C6446002C00D54042CD
S113092010BC7047002806D003DB0020C0434008F9
S113093001E08020000607B4024802A1401802909A
S113094003BDC046190000000029EBD003B5FFF732
S1130950A7FF0EBC4243891A1847C0467047C046D9
S113096080B500AF00BEBD4680BDC04680B500AFB7
S1130970064A0749074BD150074A88235B010021E7
S1130980D15001F08DFFBD4680BDC04600E000E0BF
S113099000000000080D00000070044080B500AFA6
S11309A0054A064BD31A054A101C00211A1C02F0F2
S11309B0BDF9BD4680BDC04684F0FF1F00F0FF1F97
S11309C002F046FAFFF7D2FFFFF7E8FF02F074FAED
S11309D002F0F2F902F04AFA044B0020191C02F06A
S11309E07FF8031C181C02F085F9C04600F0FF1FB5
S11309F080B582B000AF7860FEE7C04680B500AF36
S1130A00002005210122002300F0B2FF0020042170
S1130A100122002300F0ACFF00200C21012200235E
S1130A2000F0A6FF032004210122002300F0A0FF10
S1130A30032005210022002300F09AFFBD4680BD5B
S1130A4080B584B000AF021CFB1D1A703B1C0E3332
S1130A5000221A80FB1D1B78072B00D98CE19A0019
S1130A60D04BD3181B689F4600200521002201F0BB
S1130A7005F900200421002201F000F900200C21D6
S1130A80002201F0FBF803200421002201F0F6F813
S1130A903B1C0E3300221A8006E03B1C0E333A1C2A
S1130AA00E32128801321A803B1C0E331A88BE4B58
S1130AB09A42F2D90320052101F0B2F9031C002B5C
S1130AC001D0012372E1002370E1002005210122FD
S1130AD001F0D4F800200421002201F0CFF8002016
S1130AE00C21002201F0CAF803200421002201F0A5
S1130AF0C5F83B1C0E3300221A8006E03B1C0E3363
S1130B003A1C0E32128801321A803B1C0E331A88AA
S1130B10A54B9A42F2D90320052101F081F9031C67
S1130B20002B01D0012341E100233FE100200521F6
S1130B30002201F0A3F800200421012201F09EF814
S1130B4000200C21002201F099F803200421002246
S1130B5001F094F83B1C0E3300221A8006E03B1C83
S1130B600E333A1C0E32128801321A803B1C0E33AB
S1130B701A888D4B9A42F2D90320052101F050F9CD
S1130B80031C002B01D0012310E100230EE10020FF
S1130B900521012201F072F800200421012201F054
S1130BA06DF800200C21002201F068F803200421D4
S1130BB0002201F063F83B1C0E3300221A8006E089
S1130BC03B1C0E333A1C0E32128801321A803B1C35
S1130BD00E331A88744B9A42F2D90320052101F08E
S1130BE01FF9031C002B01D00123DFE00023DDE00B
S1130BF000200521002201F041F8002004210022F8
S1130C0001F03CF800200C21012201F037F8032008
S1130C100421002201F032F83B1C0E3300221A801A
S1130C2006E03B1C0E333A1C0E32128801321A8045
S1130C303B1C0E331A885C4B9A42F2D903200521DF
S1130C4001F0EEF8031C002B01D00123AEE00023D9
S1130C50ACE000200521012201F010F8002004215D
S1130C60002201F00BF800200C21012201F006F80B
S1130C7003200421002201F001F83B1C0E33002262
S1130C801A8006E03B1C0E333A1C0E3212880132E5
S1130C901A803B1C0E331A88434B9A42F2D9032024
S1130CA0052101F0BDF8031C002B01D001237DE0D8
S1130CB000237BE000200521002200F0DFFF00205C
S1130CC00421012200F0DAFF00200C21012200F0AF
S1130CD0D5FF03200421002200F0D0FF3B1C0E337B
S1130CE000221A8006E03B1C0E333A1C0E32128896
S1130CF001321A803B1C0E331A882B4B9A42F2D9CC
S1130D000320052101F08CF8031C002B01D00123E2
S1130D104CE000234AE000200521012200F0AEFF50
S1130D2000200421012200F0A9FF00200C2101224F
S1130D3000F0A4FF03200421002200F09FFF3B1CCD
S1130D400E3300221A8006E03B1C0E333A1C0E328E
S1130D50128801321A803B1C0E331A88124B9A42B5
S1130D60F2D90320052101F05BF8031C002B01D00C
S1130D7001231BE0002319E000200521002200F0DC
S1130D807DFF00200421002200F078FF00200C21C8
S1130D90002200F073FF03200421012200F06EFF03
S1130DA0C04603E0E0300000E7030000181CBD4625
S1130DB004B080BD80B500AF0420012101220023CE
S1130DC000F0D6FD042000210122002300F0D0FD14
S1130DD0032001210122002300F0CAFD0320032186
S1130DE00122002300F0C4FD03200221012200237C
S1130DF000F0BEFD032000210122002300F0B8FD15
S1130E00BD4680BD80B582B000AF021CFB1D1A70C8
S1130E10FB1D1B78012B05D104200121012200F0C8
S1130E202DFF04E004200121002200F027FFBD462D
S1130E3002B080BD80B582B000AF021CFB1D1A70E9
S1130E40FB1D1B78012B05D104200021012200F099
S1130E5015FF04E004200021002200F00FFFBD462E
S1130E6002B080BD80B582B000AF021CFB1D1A70B9
S1130E70FB1D1B78012B05D103200121012200F069
S1130E80FDFE04E003200121002200F0F7FEBD4630
S1130E9002B080BD80B582B000AF021CFB1D1A7089
S1130EA0FB1D1B78012B05D103200321012200F037
S1130EB0E5FE04E003200321002200F0DFFEBD462E
S1130EC002B080BD80B582B000AF0A1CFB1D011CBE
S1130ED01970BB1D1A70FB1D1B78012B19D1BB1D8A
S1130EE01B78012B0AD103200221002200F0C6FE48
S1130EF003200021002200F0C1FE14E0032002219F
S1130F00012200F0BBFE03200021012200F0B6FE06
S1130F1009E003200221012200F0B0FE0320002199
S1130F20002200F0ABFEBD4602B080BD80B582B0A9
S1130F3000AFFB1D00221A70012000F029FC031CE5
S1130F40012B06D0102000F023FC031C012B00D041
S1130F50ACE00120002100F027FB1020002100F06C
S1130F6023FB00F0B1F8031C012B32D0022B56D026
S1130F70002B00D07CE04F4B5B221A7000F0A4F8E9
S1130F80031C3033DAB24B4B5A704A4B5D229A70D1
S1130F90FB1D00221A700BE0FB1D1B78454AD35C35
S1130FA0181C00F0EFFAFB1DFA1D127801321A70BA
S1130FB0FB1D1B78022BEFD90220012100F0F4FA6B
S1130FC03D4B181C00F0CAFA3C4B181C00F0C6FA42
S1130FD06CE0384B5B221A7000F076F8031C303357
S1130FE0DAB2344B5A70334B5D229A70FB1D0022E7
S1130FF01A700BE0FB1D1B782E4AD35C181C00F002
S1131000C1FAFB1DFA1D127801321A70FB1D1B7800
S1131010022BEFD92A4B181C00F0A0FA46E0254B0E
S11310205B221A7000F050F8031C3033DAB2214B03
S11310305A70204B5D229A70FB1D00221A700BE03F
S1131040FB1D1B781B4AD35C181C00F09BFAFB1D8C
S1131050FA1D127801321A70FB1D1B78022BEFD98E
S1131060184B181C00F07AFA002000F037F81DE045
S1131070104B5B221A700F4B33225A700D4B5D22BA
S11310809A70FB1D00221A700BE0FB1D1B78094AA5
S1131090D35C181C00F076FAFB1DFA1D127801329D
S11310A01A70FB1D1B78022BEFD9C046BD4602B057
S11310B080BDC04658F0FF1FEC2E0000FC2E00003F
S11310C0202F0000342F000080B500AF024B1B78A6
S11310D0181CBD4680BDC04604F0FF1F80B582B019
S11310E000AF021CFB1D1A70FB1D1B78012B07D0DF
S11310F0022B09D0002B0BD1094B00221A700BE0F4
S1131100074B01221A7007E0054B02221A7003E014
S1131110034B00221A70C046BD4602B080BDC046D3
S113112004F0FF1FB0B58EB000AFDE4B1B78012B6F
S11311301BD0022B00D1DBE1002B00D008E20220FF
S113114000F026FB031C012B00D0FCE1D64B181C3D
S113115000F004FA0220002100F026FA0120FFF733
S1131160BDFFD04B01221A70EDE1D04B1B780F2B41
S113117000D9EAE19A00CE4BD3181B689F46CD4BA9
S1131180181C00F0EBF90120FFF73CFE052001F0EC
S1131190CDF9031C3B63DB177B63C74B396B7A6B5D
S11311A019605A60C14B01221A7079E1C24B5C6824
S11311B01B68181C211C01F09FF9031C012B00D093
S11311C05FE1BE4B181C00F0C9F90020FFF71AFEBE
S11311D0B64B02221A7054E1B94B181C00F0BEF948
S11311E001200021FFF76EFE0A2001F09FF9031C85
S11311F0BB62DB17FB62B04BB96AFA6A19605A60CA
S1131200AA4B03221A704BE1AB4B5C681B68181C99
S1131210211C01F071F9031C012B00D033E1A94B0F
S1131220181C00F09BF900200021FFF74BFE9F4B98
S113123004221A7027E1A44B181C00F08FF9012036
S1131240FFF710FE052001F071F9031C3B62DB1768
S11312507B62994B396A7A6A19605A60934B05220A
S11312601A701DE1944B5C681B68181C211C01F06A
S113127043F9031C012B00D007E1944B181C00F028
S11312806DF90020FFF7EEFD884B06221A70FCE092
S11312908F4B181C00F062F901200021FFF712FEA9
S11312A00A2001F043F9031C1A1CBA61DB17FB6125
S11312B0814BB969FA6919605A607C4B07221A702C
S11312C0EEE07D4B5C681B68181C211C01F014F9CE
S11312D0031C012B00D0DAE07A4B181C00F03EF915
S11312E000200021FFF7EEFD704B08221A70CEE0BB
S11312F0784B181C00F032F90120FFF79BFD052004
S113130001F014F9031C1A1C3A61DB177B616A4B68
S113131039697A6919605A60644B09221A70BFE00E
S1131320654B5C681B68181C211C01F0E5F8031C64
S1131330012B00D0ADE0684B181C00F00FF9002021
S1131340FFF778FD594B0A221A70A2E05C4B181C77
S113135000F004F901200021FFF7B4FD0A2001F098
S1131360E5F8031C1A1CBA60DB17FB60524BB96822
S1131370FA6819605A604D4B0B221A7090E04E4B7C
S11313805C681B68181C211C01F0B6F8031C012BB7
S113139000D080E04B4B181C00F0E0F80020002146
S11313A0FFF790FD414B0C221A7074E04B4B181C54
S11313B000F0D4F80120FFF76DFD052001F0B6F828
S11313C0031C1A1C3A60DB177B603B4B39687A6854
S11313D019605A60354B0D221A7061E0364B5C6817
S11313E01B68181C211C01F087F8031C012B54D125
S11313F03B4B181C00F0B2F80020FFF74BFD2B4BC1
S11314000E221A7049E0374B181C00F0A7F8364B2F
S1131410181C00F0A3F801200121FFF753FD14204C
S113142001F084F8031C1C1CDB171D1C224B1C60E0
S11314305D601E4B0F221A7032E01F4B5C681B6804
S1131440181C211C01F058F8031C012B27D11D4B3B
S1131450181C00F083F8254B181C00F07FF80020BE
S11314600021FFF72FFD114B00221A700D4B0022B3
S11314701A700220FFF732FE1020012100F094F8C8
S11314800DE0C0460CE0C0460AE0C04608E0C04695
S113149006E0C04604E0C04602E0C04600E0C046A4
S11314A053E0C04605F0FF1F4C2F000006F0FF1F5D
S11314B000310000602F000008F0FF1F742F0000AF
S11314C08C2F00009C2F0000B02F0000C82F0000BC
S11314D0E42F0000F82F000010300000303000002E
S11314E0483000005C3000006C30000088300000A0
S11314F001200121FFF7E6FC174B5B78002B07D096
S1131500154B9B79002B03D0134BDB79002B1ED199
S113151000200021FFF7D6FC0F4B5B78002B0DD188
S11315200D4B9B79012B09D10B4BDB79012B05D199
S11315300420012100F038F8C04608E00820012109
S113154000F032F803E0C04602E0C04600E0C046C6
S1131550BD460EB0B0BDC04660F0FF1F80B582B07E
S113156000AF786007E07B681B787A6801327A60A4
S1131570181C00F007F87B681B78002BF3D1BD46DC
S113158002B080BD80B582B000AF021CFB1D1A7092
S1131590044AFB1D1B78101C191C01F0FBF8BD4606
S11315A002B080BD00A0064080B582B000AF0A1C26
S11315B0FB1D011C1970BB1D1A70FB1D1B78082B29
S11315C05DD006DC022B2AD0042B40D0012B0ED098
S11315D0D9E0202B00D181E002DC102B67D0D2E0CF
S11315E0402B00D191E0802B00D1A5E0CBE0BB1DC6
S11315F01B78012B06D1654B1B7801221343DAB209
S1131600624B1A70BB1D1B78002B00D0ACE05F4B03
S11316101B7801229343DAB25C4B1A70A4E0BB1D21
S11316201B78012B06D1594B1B7802221343DAB2E3
S1131630564B1A70BB1D1B78002B00D096E0534B01
S11316401B7802229343DAB2504B1A708EE0BB1D12
S11316501B78012B06D14D4B1B7804221343DAB2BD
S11316604A4B1A70BB1D1B78002B00D080E0474BFF
S11316701B7804229343DAB2444B1A7078E0BB1D02
S11316801B78012B06D1414B1B7808221343DAB295
S11316903E4B1A70BB1D1B78002B00D06AE03B4BFD
S11316A01B7808229343DAB2384B1A7062E0BB1DF0
S11316B01B78012B06D1354B1B7810221343DAB269
S11316C0324B1A70BB1D1B78002B55D12F4B1B7846
S11316D010229343DAB22D4B1A704DE0BB1D1B78D8
S11316E0012B06D1294B1B7820221343DAB2274B56
S11316F01A70BB1D1B78002B40D1244B1B78202271
S11317009343DAB2214B1A7038E0BB1D1B78012BCE
S113171006D11E4B1B7840221343DAB21B4B1A70BE
S1131720BB1D1B78002B2BD1184B1B7840229343F5
S1131730DAB2164B1A7023E0BB1D1B78012B07D1BC
S1131740124B1B78802252421343DAB20F4B1A70A9
S1131750BB1D1B78002B15D10C4B1A787F2313402B
S1131760DAB20A4B1A700DE0C0460CE0C0460AE03B
S1131770C04608E0C04606E0C04604E0C04602E0B9
S1131780C04600E0C046BD4602B080BD10F0FF1F59
S113179080B584B000AF021CFB1D1A70FB1D1B78C2
S11317A0082B43D006DC022B20D0042B2ED0012B97
S11317B00CD08BE0202B59D002DC102B46D085E0D6
S11317C0402B63D0802B00D170E07FE0424B19782E
S11317D03B1C0F3301220A401A703B1C0F331B7849
S11317E0012B01D1012372E0002370E03A4B1978F8
S11317F03B1C0F3302220A401A703B1C0F331B7828
S1131800022B01D1012362E0002360E0324B1978FE
S11318103B1C0F3304220A401A703B1C0F331B7805
S1131820042B01D1012352E0002350E02A4B197804
S11318303B1C0F3308220A401A703B1C0F331B78E1
S1131840082B01D1012342E0002340E0224B197808
S11318503B1C0F3310220A401A703B1C0F331B78B9
S1131860102B01D1012332E0002330E01A4B197808
S11318703B1C0F3320220A401A703B1C0F331B7889
S1131880202B01D1012322E0002320E0124B197800
S11318903B1C0F3340220A401A703B1C0F331B7849
S11318A0402B01D1012312E0002310E00A4B1A78E7
S11318B03B1C0F337F218A431A703B1C0F331B7868
S11318C0802B01D1012302E0002300E0FFE7181C74
S11318D0BD4604B080BDC04610F0FF1F80B500AF08
S11318E01D4A1D491D4BCB58A021490119431B4BCF
S11318F0D1501B4B802252009A641A4B194A5268E9
S11319008021C9020A435A60164B164A5269802143
S1131910C9020A435A61124B80225200DA64114B05
S1131920104A5268802109030A435A600D4B0D4A3C
S11319305269802109030A435A610B4B80225200E9
S11319405A600A4B02225A60084B084A5269022123
S11319500A435A61BD4680BD00700440381000003F
S113196000A0044040F00F4000C00440C0F00F400D
S113197090B583B000AF041C081C111C1A1CFB1D7D
S11319801C70BB1D18707B1D19703B1D1A70FB1D4C
S11319901B78042B00D954E19A00AB4BD3181B6875
S11319A09F46AA4AA949AA4BCB58802189001943CA
S11319B0A74BD150A74BBA1D127892008021490041
S11319C0D1503B1D1B78012B0BD1A24BBA1D1278B1
S11319D0A049B81D007880004158022001439200BC
S11319E0D1507B1D1B78012B0BD19B4B9A4A51691B
S11319F0BA1D12780120041C9440221C0A435A6127
S1131A0016E17B1D1B78002B00D011E1924B924A0A
S1131A105269B91D09780120041C8C40211CC9435A
S1131A200A405A6104E1894A8849894BCB5880218C
S1131A30C9001943864BD150884BBA1D12789200C5
S1131A4080214900D1503B1D1B78012B0BD1814BC8
S1131A50BA1D12787F49B81D0078800041580220D1
S1131A6001439200D1507B1D1B78012B0BD17C4B81
S1131A707B4A5169BA1D12780120041C9440221C2F
S1131A800A435A61D6E07B1D1B78002B00D0D1E0BD
S1131A90734B734A5269B91D09780120041C8C40A8
S1131AA0211CC9430A405A61C4E0684A6749684B2B
S1131AB0CB58802109011943654BD150694BBA1D9C
S1131AC01278920080214900D1503B1D1B78012BD4
S1131AD00BD1604BBA1D12785E49B81D00788000A6
S1131AE04158022001439200D1507B1D1B78012BE9
S1131AF00BD15D4B5C4A5169BA1D12780120041C5C
S1131B009440221C0A435A6196E07B1D1B78002BEB
S1131B1000D091E0544B544A5269B91D0978012010
S1131B20041C8C40211C0A405A6185E0474A4749FD
S1131B30474BCB58802149011943454BD1504B4B5E
S1131B40BA1D1278920080214900D1503B1D1B78A8
S1131B50012B0BD13F4BBA1D12783E49B81D0078BA
S1131B6080004158022001439200D1507B1D1B7814
S1131B70012B0BD13E4B3E4A5169BA1D127801200C
S1131B80041C9440221C0A435A6157E07B1D1B78B5
S1131B90002B53D1364B364A5269B91D09780120BE
S1131BA0041C8C40211CC9430A405A6146E0274A60
S1131BB02649274BCB58802189011943244BD15006
S1131BC02C4BBA1D1278920080214900D1503B1D44
S1131BD01B78012B0BD11F4BBA1D12781D49B81D60
S1131BE0007880004158022001439200D1507B1DAF
S1131BF01B78012B0BD1204B1F4A5169BA1D127857
S1131C000120041C9440221C0A435A6118E07B1DE5
S1131C101B78002B14D1184B174A5269B91D097847
S1131C200120041C8C40211CC9430A405A6107E06E
S1131C30C04606E0C04604E0C04602E0C04600E0FC
S1131C40C046BD4603B090BD403100000070044062
S1131C50381000000090044000F00F4000A0044041
S1131C6040F00F4000B0044080F00F4000C004403A
S1131C70C0F00F4000D0044000F10F4090B583B095
S1131C8000AFFB1D1870BB1D19707B1D1A70FB1D66
S1131C901B78042B00D9B4E09A005B4BD3181B6863
S1131CA09F467B1D1B78012B0BD1584B574A51681B
S1131CB0BA1D12780120041C9440221C0A435A6065
S1131CC096E07B1D1B78002B00D091E04F4B4F4AD0
S1131CD01268B91D09780120041C8C40211CC943D9
S1131CE00A401A6084E07B1D1B78012B0BD1484B02
S1131CF0474A5168BA1D12780120041C9440221CE2
S1131D000A435A6076E07B1D1B78002B00D071E0FB
S1131D103F4B3F4A1268B91D09780120041C8C40CE
S1131D20211CC9430A401A6064E07B1D1B78012B07
S1131D300BD1384B374A5168BA1D12780120041C64
S1131D409440221C0A435A6056E07B1D1B78002BEA
S1131D5052D1304B2F4A1268B91D09780120041C56
S1131D608C40211CC9430A401A6045E07B1D1B7846
S1131D70012B0BD1284B284A5168BA1D1278012037
S1131D80041C9440221C0A435A6037E07B1D1B78D4
S1131D90002B33D1204B204A1268B91D0978012049
S1131DA0041C8C40211CC9430A401A6026E07B1D98
S1131DB01B78012B0BD1194B184A5168BA1D1278A4
S1131DC00120041C9440221C0A435A6018E07B1D25
S1131DD01B78002B14D1114B104A1268B91D0978D5
S1131DE00120041C8C40211CC9430A401A6007E0EE
S1131DF0C04606E0C04604E0C04602E0C04600E03B
S1131E00C046BD4603B090BD5431000000F00F4001
S1131E1040F00F4080F00F40C0F00F4000F10F4041
S1131E2080B582B000AF0A1CFB1D011C1970BB1DDC
S1131E301A70FB1D1B78042B45D89A00244BD31829
S1131E401B689F46234B1B699BB2BA1D1278012164
S1131E50081C9040021C92B213409BB234E01E4B0B
S1131E601B699BB2BA1D12780121081C9040021C08
S1131E7092B213409BB227E0184B1B699BB2BA1D68
S1131E8012780121081C9040021C92B213409BB2AC
S1131E901AE0134B1B699BB2BA1D12780121081C6E
S1131EA09040021C92B213409BB20DE00D4B1B6993
S1131EB09BB2BA1D12780121081C9040021C92B2F8
S1131EC013409BB200E0FFE7181CBD4602B080BD82
S1131ED06831000000F00F4040F00F4080F00F40E8
S1131EE0C0F00F4000F10F4080B586B000AF7860BD
S1131EF0081C111C1A1CFB1C1870BB1C19707B1CC1
S1131F001A70C24B9B79DBB21A1C0C2313409B083A
S1131F100DD1BE4B9B79DBB21A1C1023134006D0A3
S1131F20BA4B9B79DBB21A1C2023134001D0012346
S1131F3073E27A68B64B9A4201DD21236DE2BB1C41
S1131F401B78002B09D07A68B24B9A4203DD7A6879
S1131F50B14B9A4201DD22235FE2FB1C1B78002B6C
S1131F6002D0FB1C01221A707B1C1B785BB2002B75
S1131F7004DD7B1C1B785BB2192B01DD41234CE291
S1131F803B1C20331B785BB2172B05DD3B1C203335
S1131F901B785BB2322B01DD42233EE27B1C1B78B3
S1131FA05BB27868191CFEF779FC031C3B613A6943
S1131FB09A4B9A4203DD3A69994B9A4201DD4323D5
S1131FC02BE27B1C1B785BB27868191CFEF766FC5D
S1131FD0031C3A1C2032127852B25343FB60FA6855
S1131FE0904B9A4203DDFA688F4B9A4201DD4523F8
S1131FF013E2864A3B1C163352781A703B1C163384
S11320003A1C163212783C218A431A707A68874B3C
S11320109A4214DCFB1C1B78DB00DAB2BB1C1B7875
S11320209B00DBB21343DAB23B1C16331B78134319
S1132030DAB23B1C163310210A431A7013E0FB1C5E
S11320401B78DB00DAB2BB1C1B789B00DBB21343AA
S1132050DAB23B1C16331B781343DAB23B1C16333B
S113206020210A431A70694B3A1C163212785A70AE
S11320707A686F4B9A4204DC3B1C173300221A70B7
S113208027E07A686B4B9A4204DC3B1C173301222D
S11320901A701EE07A68684B9A4204DC3B1C1733C2
S11320A002221A7015E07A68644B9A4204DC3B1CE5
S11320B0173303221A700CE07A68614B9A4204DCED
S11320C03B1C173304221A7003E03B1C1733052210
S11320D01A704E4A3B1C163312781A703B1C163386
S11320E03A1C1632117803220A401A703B1C17332B
S11320F01B78DB00DAB238231340DAB23B1C163308
S11321001B781343DAB23B1C1633802149420A433D
S11321101A703E4B3A1C163212781A70BB1C1B788C
S1132120002B24D03B1C143300221A800DE0374BC3
S11321309B79DBB21A1C022313400ED13B1C1433CF
S11321403A1C1432128801321A803B1C14330021C9
S11321505A5E3C4B9A42EADD00E0C0462B4B9B7929
S1132160DBB21A1C0223134001D1232355E13B1C8B
S1132170143300221A800DE0244B9B79DBB21A1C25
S1132180102313400ED03B1C14333A1C1432128813
S113219001321A803B1C143300215A5E2A4B9A42A6
S11321A0EADD00E0C046194B9B79DBB21A1C102310
S11321B0134001D0112330E13B1C143300221A8058
S11321C00FE0124B9B79DBB21A1C0C2313409B08C3
S11321D0022B0ED03B1C14333A1C143212880132E9
S11321E01A803B1C143300215A5E174B9A42E8DDD7
S11321F000E0C046054B9B79DBB21A1C0C2313404C
S11322009B08022B22D01A2307E1C0460040064057
S113221080F0FA02BFC62D000048E8017F841E004A
S113222000093D00FF6BDC0200E1F50500127A00B5
S1132230D0121300A0252600404B4C008096980035
S1132240002D31011F4E0000CF070000754B754A69
S11322505279D2B220210A43D2B25A71714A3B1C3C
S1132260163312791A703B1C16333A1C1632127844
S11322701F218A431A707B1C1B78013BDAB21F238F
S11322801340D9B23B1C16333A1C163212780A4357
S11322901A70644B3A1C163212781A71614A3B1C4C
S11322A0163352791A703B1C16333A1C16321278C4
S11322B01F218A431A703B1C20331B78183BDAB267
S11322C01F231340DAB23B1C16331B781343DAB2D4
S11322D03B1C163340210A431A70524B3A1C1632E7
S11322E012785A713B1C143300221A800DE04D4BB6
S11322F09B79DBB21A1C202313400ED13B1C1433F0
S11323003A1C1432128801321A803B1C1433002107
S11323105A5E454B9A42EADD00E0C046414B9B7948
S1132320DBB21A1C2023134001D1162375E03B1C99
S1132330143300221A800DE03A4B9B79DBB21A1C4D
S1132340402313400ED13B1C14333A1C1432128820
S113235001321A803B1C143300215A5E334B9A42DB
S1132360EADD00E0C0462F4B9B79DBB21A1C402308
S1132370134001D1442350E02A4B1B79DAB21F23C6
S11323801340DAB23B1C0B3301321A70254B5B79D4
S1132390DAB21F231340DAB23B1C0A3318321A7024
S11323A0204B204A1278D1B23F220A40D2B21A708E
S11323B03B1C143300221A800FE01A4B9B79DBB2CA
S11323C01A1C0C2313409B08032B0ED03B1C143304
S11323D03A1C1432128801321A803B1C1433002137
S11323E05A5E114B9A42E8DD00E0C0460D4B9B79E2
S11323F0DBB21A1C0C2313409B08032B01D01B23B4
S11324000BE03B1C0B331B787868191CFEF746FA6B
S1132410031C3A1C0A3212785343181CBD4606B0FA
S113242080BDC04600400640CF0700009F0F00005B
S113243080B500AF154A1549154BCB5880210904C6
S11324401943134BD150134A80235B008321C900E5
S1132450D150104B01221A600E4A84235B000321E1
S1132460D1500D4A0C49C0235B00CB588021C903CD
S11324701943C0235B00D150074B074A12688021DF
S1132480C9030A431A60BD4680BDC04600700440BB
S11324903C1000000070034000E100E090B500AF84
S11324A0114A114986235B00CB5801211943862325
S11324B05B00D1500D4B1B685A1C0C4B1A600B4B24
S11324C01A680B4B9A420CD9084B00221A60094B2C
S11324D019685A68012300245B185441054A1360A3
S11324E05460BD4690BDC0460070034014F0FF1F09
S11324F0DF2E000018F0FF1F90B583B000AF3860E6
S11325007960094B5C681B687A68A24207D87A68CC
S1132510A24202D13A689A4201D8012300E0002382
S1132520181CBD4603B090BD18F0FF1F90B583B0D2
S113253000AF38607960064B19685A683B687C685C
S11325405B185441181C211CBD4603B090BDC04605
S113255018F0FF1F80B58EB000AFF860B9607A60E4
S113256000237B6200233B630023FB6200233B6266
S11325700023BB62814A8149814BCB588021C90029
S113258019437F4BD1507F4B7E4AD278D2B20C2173
S11325908A43D2B2DA70BA687B4B9A4202DCBB68D7
S11325A01F2B0EDC0023BB60744A784BD3583B626C
S11325B03A6A774B13403B62704A744B396AD15084
S11325C0FEE77B68FB61BB68FA2292005343BB6160
S11325D03B1C373304221A703B1C37331B78FA69CF
S11325E05343B869191CFEF70BF9031C7B613B1CB0
S11325F037331B787A695343B869191CFEF700F91D
S1132600031C7B627A6AFB699A4204D97A6AFB6981
S1132610D31A3B6303E0FA697B6AD31A3B633B1C1E
S113262037331B78FB623B1C373305221A7033E0C7
S11326303B1C37331B78FA695343B869191CFEF7FE
S1132640DFF8031C7B613B1C37331B787A695343E7
S1132650B869191CFEF7D4F8031C7B627A6AFB691B
S11326609A4204D97A6AFB69D31ABB6203E0FA6915
S11326707B6AD31ABB62BA6A3B6B9A4205D8BB6ABF
S11326803B633B1C37331B78FB623B1C37333A1CE0
S11326903732127801321A703B1C37331B78202BE7
S11326A0C6D9FB69181C6421FEF7AAF8031C1A1C7E
S11326B0131C5B009A183B6B9A425BD9FB6A032B91
S11326C00AD9FB6A082B07D82E4B2E4AD27AD2B2EB
S11326D002210A43D2B2DA722A4B9B7ADBB23B6202
S11326E03B6A1F2293433B62FB6ADBB2013BDBB2D2
S11326F01A1C1F2313403A6A13433B62214B3A6A64
S1132700D2B29A723A6A1F23134001333B62FB69C7
S11327103A6A5343B869191CFEF772F8031C7B61CB
S1132720184B1B78DBB21F2293433B62154B79692C
S1132730F82252010A40120AD1B21F220A40D1B231
S11327403A6AD2B20A43D2B21A700E4B7A69D2B242
S11327505A700C4B0B4AD278D2B220210A43D2B21F
S1132760DA70084B074AD278D2B20C210A43D2B2AB
S1132770DA7000E0FEE7BD460EB080BD0070044094
S11327803410000000A0064050C3000004100000F4
S1132790FFFFFFF380B582B000AF78600A1CFB1C1A
S11327A01A70C0467B681B79DBB2DBB25BB2002BCC
S11327B0F8DA7B68FA1C1278DA71BD4602B080BD83
S11327C080B582B000AFFB1D00221A70304B1B791C
S11327D0DBB21A1C2023134057D02D4AFB1DD2799B
S11327E01A702B4B1B79DBB2DBB25BB2002B06DB1E
S11327F0274B1B79DBB21A1C4023134003D0244B14
S1132800FA1D1278DA71FB1D1B785B2B02D1214B68
S113281000221A70FB1D1B785D2B02D11D4B022276
S11328201A701C4B1B78012B1DD0022B28D0002BB7
S11328302BD1194B00221A700AE0174B1B78174A48
S11328400021D154144B1B780133DAB2124B1A70A5
S1132850114B1B78072BF0D90E4B01221A700E4B2B
S113286000221A7011E00C4B1B780C4AF91D0978F0
S1132870D154094B1B780133DAB2074B1A7004E0C8
S113288001200121FEF790FEC046BD4602B080BD86
S113289000A0064020F0FF1F21F0FF1F50F0FF1F93
S11328A080B582B002AF3D4A3C493D4BCB58F8213C
S11328B0890119433A4BD150384A3A4B8021490295
S11328C0D150394B1822009201220192181C002188
S11328D001220423FFF708FB021C344B1A60334B1C
S11328E01B68181CFA239900FDF7D8FF031C1A1C57
S11328F02F4B1A602E4B1B681A1C2849294BCB58A6
S11329001B0F0133101C191CFDF77AFF031C1A1C42
S1132910284B1A60274B1B681A1C2049214BC958A5
S1132920E023DB020B401B0C0133101C191CFDF7C8
S113293067FF031C1A1C204B1A60184A17491F4BC7
S1132940CB588021490219431C4BD1501C4B802287
S113295092005A601A4B802292009A600F4A0F49E3
S1132960164BCB588021C9041943144BD1500F4B3B
S11329701B68181CFA23D900FDF790FF031C1A1CCE
S1132980104B1A600F4B1A680F4996239B01081CC1
S1132990111C1A1CFFF7DEFDBD4680BD007004400B
S11329A0381000004410000000127A0068F0FF1F85
S11329B07CF0FF1F6CF0FF1F70F0FF1F041000007D
S11329C00090044074F0FF1F00A0064080B582B060
S11329D000AF78607B68202B01DDC04620E0124AFE
S11329E07968124B0B4004D5013B202149420B432B
S11329F001330121081C9840031C191CC0235B00EF
S1132A00D150094A7968094B0B4004D5013B202178
S1132A1049420B4301330121081C9840031C1360F5
S1132A20BD4602B080BDC04600E100E01F0000804A
S1132A3080B584B000AF786039603B1C0F3300224E
S1132A401A703B1C0E3300221A703B1C0D330022FB
S1132A501A707B68202B03DD3B1C0F3301221A7094
S1132A603B68032B03DD3B1C0F3301221A703B1C14
S1132A700F331B78012B2CD07B68002B00DA033337
S1132A809B101A1C3B1C0E331A707A68124B1340AD
S1132A9004D5013B04225242134301331A1C3B1C4C
S1132AA00D331A703B1C0E331B789B000B481B180C
S1132AB0BB60BB681A683B689901FF2319403B1C43
S1132AC00D331B78DB00081C9840031C1A43BB68B9
S1132AD01A60BD4604B080BD0300008000E400E03D
S1132AE0F0B585B000AFFEF7F9FE754B80221203F6
S1132AF05A60734B8022D2025A60724B02225A608F
S1132B000220012101220023FEF732FFFFF790FC8F
S1132B10FDF774FFFEF74EF900200021FEF7D2F90D
S1132B200020FEF76FF90020FEF784F90020FEF77D
S1132B3099F90020FEF7AEF962B60C20FFF746FFC4
S1132B400C200221FFF774FF5F4B181CFEF706FDF3
S1132B505E4B181CFEF702FD5D4B181CFEF7FEFCD5
S1132B605C4B181CFEF7FAFC00E0C0465A4B1B688D
S1132B705A1C594B1A60584B1A68584B9A421BD925
S1132B80554B00221A60564B1B781E1C544B1B7865
S1132B90181CFDF755FF031CDAB2524B9A55504BE3
S1132BA01B780133DAB24E4B1A704D4B1B78072B4E
S1132BB002D94B4B00221A70FEF7B8F9FEF7B2FAAD
S1132BC0494B1B78052BD0D89A00484BD3181B6867
S1132BD09F463B4B8022D2029A600A20FFF7A6FC54
S1132BE0031C1C1CDB171D1C414B1C605D603E4B11
S1132BF001221A7062E03E4B1A685B68101C191CB3
S1132C00FFF77AFC031C012B53D1374B02221A70B5
S1132C102B4B8022D2025A604BE0294B80221203B4
S1132C209A600A20FFF782FC031C191CB960DB17A9
S1132C30FB602F4BB968FA6819605A602A4B03226B
S1132C401A703BE02A4B1A685B68101C191CFFF7CA
S1132C5053FC031C012B2ED1234B04221A70184B56
S1132C60802212035A6026E0164B02229A600A2040
S1132C70FFF75CFC031C1A1C3A60DB177B601C4BDF
S1132C8039687A6819605A60174B05221A7015E082
S1132C90174B1A685B68101C191CFFF72DFC031CEA
S1132CA0012B0AD1104B00221A70064B02225A60E3
S1132CB003E0C04602E0C04600E0C04655E7C04617
S1132CC040F00F40C0F00F409C300000B4300000D2
S1132CD0C8300000DC30000024F0FF1F8713000020
S1132CE022F0FF1F60F0FF1F28F0FF1F7C3100005F
S1132CF030F0FF1F38B5051C00F09CF800F080F898
S1132D00084C2368002B02D0984700202060064C12
S1132D102168002902D0884700222260281CFDF780
S1132D2067FE38BD38F0FF1F3CF0FF1F10B5041CD0
S1132D3000F002F8201C10BD30B5C9B2031C1F2AD4
S1132D4031D944420323234005D0D21AC518017057
S1132D500130A842FBD1002905D00D060C042C43F8
S1132D600B02214319435409031C002C0ED0251CCB
S1132D70013D196059609960D9601961596199617F
S1132D80D9612033002DF3D16301C318D006400F5D
S1132D9007D0041C1D1C013C02C5002CFBD1800083
S1132DA01B18032422409D18002A03D019700133F4
S1132DB0AB42FBD130BD000010B50B4C0B4B9C4219
S1132DC002D001CC8047F9E7094C0A48844202D07A
S1132DD008CC9847F9E7084C08498C4202D004CC47
S1132DE09047F9E710BDC0469431000094310000CB
S1132DF094310000943100009431000094310000BB
S1132E0010B5084C084B9C4202D004CC9047F9E71B
S1132E10064C0748844203D0043C21688847F8E7FD
S1132E2010BDC0469431000094310000943100007C
S1132E3094310000054B10B51C68002C04D0A06828
S1132E40616888472468F8E710BDC04640F0FF1F5A
S1132E50054B181C002805D0854681B00020C043CE
S1132E60009001B0F746704700300020F7467047E5
S1132E7000B588421FD0002A1DD00323194207D170
S1132E80184205D19A4203D908C9043A08C0F2E7A6
S1132E900123194209D1184207D19A4205D90B8856
S1132EA0023A038002310230E5E70B78013A0370FD
S1132EB001310130DFE700BD38B50B4D002D11D0D5
S1132EC000242B191968002906D02B1958689A6810
S1132ED0FFF7CEFF0C34F4E75A68002AF5D198685E
S1132EE00028F2D138BDC046943100000D0A526565
S1132EF06365626575206461646F73000D0A5365D0
S1132F007420466C6167207061726120696E696328
S1132F10696172206F2070726F636573736F000054
S1132F200D0A4D617175696E61204F75637570612D
S1132F30646100000D0A50726F636573736F2046FD
S1132F40696E616C697A61646F0000000D0A496EF4
S1132F50696369612070726F636573736F00000049
S1132F600D0A4C69676120426F6D626120646520BF
S1132F704D656C000D0A4465736C69676120426F8E
S1132F806D6261206465204D656C00000D0A4C691A
S1132F906761204573746569726100000D0A4465B8
S1132FA0736C696761204573746569726100000020
S1132FB00D0A4C69676120426F6D6261206465206F
S1132FC0566F646B610000000D0A4465736C696799
S1132FD06120426F6D626120646520566F646B618D
S1132FE0000000000D0A4C69676120646520457388
S1132FF074656972610000000D0A4C6967612042C2
S11330006F6D626120646520457374656972610047
S11330100D0A4465736C69676120426F6D626120BB
S1133020646520456E657267657469636F000000AE
S11330300D0A4C69676120426F6D626120646520EE
S1133040436F72616E7465000D0A4465736C696741
S11330506120436F72616E74650000000D0A4C6953
S11330606761204573746569726120000D0A5265B9
S1133070746F726E6120706F7369E7E36F20696E1D
S1133080696369616C0000000D0A506F7369E7E3BE
S11330906F20496E696369616C0000000D0A50720B
S11330A06F6A65746F204D6F7374656320323031BD
S11330B0360000000D0A4B69542064652041757484
S11330C06F6D6163616F00000D0A4D617175696E0A
S11330D06120646520546368617900000D0A000072
S11330E0680A0000CA0A00002C0B00008E0B0000C6
S11330F0F00B0000520C0000B40C0000160D000090
S11331007E110000AC110000D8110000081200006C
S1133110361200006412000090120000C212000077
S1133120F0120000201300004C1300007E13000076
S1133130AC130000DC130000061400003A14000075
S1133140A2190000261A0000AA1A00002C1B000075
S1133150AE1B0000A21C0000E61C00002A1D00009B
S11331606C1D0000AE1D0000441E00005E1E000029
S1133170781E0000921E0000AC1E0000D22B00003E
S1133180F62B00001A2C0000442C0000682C0000D0
S1073190902C00007B
S11331949431000000F0FF1F000000000000000054
S10B31A400000000000000001F
S90309C132
