S01600004652444D2D4B4C32355A2D554152542E6865785F
S113000000300020C10900006109000061090000FE
S113001000000000000000000000000000000000DC
S11300200000000000000000000000006109000062
S113003000000000000000006109000061090000E8
S11300406109000061090000610900006109000004
S113005061090000610900006109000061090000F4
S113006061090000610900006109000061090000E4
S113007029290000610900006109000061090000EC
S113008061090000610900006109000061090000C4
S113009061090000610900000126000061090000F7
S11300A061090000610900006109000061090000A4
S11300B06109000061090000610900006109000094
S1130800002934D00123002210B488422CD30124BF
S11308102407A14204D2814202D209011B01F8E754
S1130820E400A14204D2814202D249005B00F8E70D
S1130830884201D3401A1A434C08A04202D3001B39
S11308405C0822438C08A04202D3001B9C0822436C
S1130850CC08A04202D3001BDC082243002803D0AA
S11308601B0901D00909E3E7101C10BC70470028DC
S113087001D00020C04307B4024802A140180290EE
S113088003BDC046D90000000029F0D003B5FFF72E
S1130890B9FF0EBC4243891A1847C046002941D00B
S11308A010B4041C4C40A44601230022002900D5A6
S11308B04942002800D5404288422CD30124240711
S11308C0A14204D2814202D209011B01F8E7E400EB
S11308D0A14204D2814202D249005B00F8E7884277
S11308E001D3401A1A434C08A04202D3001B5C08EF
S11308F022438C08A04202D3001B9C082243CC084C
S1130900A04202D3001BDC082243002803D01B09A9
S113091001D00909E3E7101C6446002C00D54042CD
S113092010BC7047002806D003DB0020C0434008F9
S113093001E08020000607B4024802A1401802909A
S113094003BDC046190000000029EBD003B5FFF732
S1130950A7FF0EBC4243891A1847C0467047C046D9
S113096080B500AF00BEBD4680BDC04680B500AFB7
S1130970064A0749074BD150074A88235B010021E7
S1130980D15002F041F8BD4680BDC04600E000E011
S113099000000000080D00000070044080B500AFA6
S11309A0054A064BD31A054A101C00211A1C02F0F2
S11309B017FABD4680BDC0468CF0FF1F00F0FF1F34
S11309C002F0A0FAFFF7D2FFFFF7E8FF02F0CEFA39
S11309D002F04CFA02F0A4FA044B0020191C02F0B5
S11309E033F9031C181C02F0DFF9C04600F0FF1FA6
S11309F080B582B000AF7860FEE7C04680B500AF36
S1130A00002005210122002301F064F800200421C4
S1130A100122002301F05EF800200C2101220023B2
S1130A2001F058F8032004210122002301F052F8B8
S1130A30032005210022002301F04CF8BD4680BDAF
S1130A4080B500AFC74B1B78072B00D97BE29A0017
S1130A50C54BD3181B689F46C44B1B78012B1BD076
S1130A60022B22D0002B44D103200421012201F0C7
S1130A70B7F900200521002201F0B2F90020042179
S1130A80002201F0ADF900200C21002201F0A8F9A8
S1130A90B64B01221A702CE003200421002201F03D
S1130AA09FF9B24B02221A7023E0B04B00221A7055
S1130AB0AC4B01221A700320052101F063FA031CD8
S1130AC0002B05D0AA4B1B88AA4A0121D15404E06B
S1130AD0A74B1B88A74A0021D154A54B1B8801337F
S1130AE09AB2A34B1A8003200421012201F078F961
S1130AF0C04628E29D4B1B78012B1BD0022B22D031
S1130B00002B44D103200421012201F069F90020C3
S1130B100521012201F064F900200421002201F0E2
S1130B205FF900200C21002201F05AF98F4B0122B9
S1130B301A702CE003200421002201F051F98B4BA0
S1130B4002221A7023E0894B00221A70854B02227C
S1130B501A700320052101F015FA031C002B05D09F
S1130B60834B1B88834A0121D15404E0804B1B88AA
S1130B70804A0021D1547E4B1B8801339AB27C4BAE
S1130B801A8003200421012201F02AF9C046DAE187
S1130B90764B1B78012B1BD0022B22D0002B44D187
S1130BA003200421012201F01BF900200521002269
S1130BB001F016F900200421012201F011F90020AE
S1130BC00C21002201F00CF9684B01221A702CE070
S1130BD003200421002201F003F9644B02221A705D
S1130BE023E0624B00221A705E4B03221A7003202A
S1130BF0052101F0C7F9031C002B05D05C4B1B88B1
S1130C005C4A0121D15404E0594B1B88594A002104
S1130C10D154574B1B8801339AB2554B1A80032089
S1130C200421012201F0DCF8C0468CE14F4B1B7813
S1130C30012B1BD0022B22D0002B44D103200421F2
S1130C40012201F0CDF800200521012201F0C8F8AD
S1130C5000200421012201F0C3F800200C2100220D
S1130C6001F0BEF8414B01221A702CE0032004214C
S1130C70002201F0B5F83D4B02221A7023E03B4BF1
S1130C8000221A70374B04221A700320052101F048
S1130C9079F9031C002B05D0354B1B88354A0121FB
S1130CA0D15404E0324B1B88324A0021D154304BDA
S1130CB01B8801339AB22E4B1A800320042101228F
S1130CC001F08EF8C0463EE1284B1B78012B1BD067
S1130CD0022B22D0002B44D103200421012201F055
S1130CE07FF800200521002201F07AF80020042179
S1130CF0002201F075F800200C21012201F070F8A7
S1130D001A4B01221A702CE003200421002201F066
S1130D1067F8164B02221A7023E0144B00221A7053
S1130D20104B05221A700320052101F02BF9031C36
S1130D30002B05D00E4B1B880E4A0121D15404E030
S1130D400B4B1B880B4A0021D154094B1B880133E0
S1130D509AB2074B1A8003200421012201F040F8C3
S1130D60C046F0E012F0FF1FD431000013F0FF1F63
S1130D7014F0FF1F68F0FF1F744B1B78012B1BD06E
S1130D80022B22D0002B44D103200421012201F0A4
S1130D9027F800200521012201F022F80020042177
S1130DA0002201F01DF800200C21012201F018F8A6
S1130DB0664B01221A702CE003200421002201F06A
S1130DC00FF8624B02221A7023E0604B00221A7063
S1130DD05F4B06221A700320052101F0D3F8031C8F
S1130DE0002B05D05B4B1B885B4A0121D15404E0E6
S1130DF0584B1B88584A0021D154564B1B88013349
S1130E009AB2544B1A8003200421012200F0E8FF17
S1130E10C04698E04D4B1B78012B1BD0022B22D0EF
S1130E20002B44D103200421012200F0D9FF00202B
S1130E300521002200F0D4FF00200421012200F04B
S1130E40CFFF00200C21012200F0CAFF3F4B0122FA
S1130E501A702CE003200421002200F0C1FF3B4B58
S1130E6002221A7023E0394B00221A70384B0722F1
S1130E701A700320052101F085F8031C002B05D00E
S1130E80344B1B88344A0121D15404E0314B1B8874
S1130E90314A0021D1542F4B1B8801339AB22D4B78
S1130EA01A8003200421012200F09AFFC0464AE080
S1130EB0264B1B78012B1BD0022B22D0002B41D1B7
S1130EC003200421012200F08BFF002005210122D0
S1130ED000F086FF00200421012200F081FF0020A1
S1130EE00C21012200F07CFF184B01221A7029E02A
S1130EF003200421002200F073FF144B02221A7015
S1130F0020E0124B00221A70114B00221A700320A9
S1130F10052101F037F8031C002B05D00D4B1B886D
S1130F200D4A0121D15404E00A4B1B880A4A0021CE
S1130F30D154084B00221A8003200421012200F01E
S1130F404FFFC046C046BD4680BDC04613F0FF1FDC
S1130F5012F0FF1F14F0FF1F68F0FF1F80B500AFF1
S1130F60042001210122002300F0B4FD042000210B
S1130F700122002300F0AEFD032001210122002301
S1130F8000F0A8FD032003210122002300F0A2FDAC
S1130F90032002210122002300F09CFD03200021F4
S1130FA00122002300F096FDBD4680BD80B582B0CD
S1130FB000AF021CFB1D1A70FB1D1B78012B05D111
S1130FC004200121012200F00BFF04E00420012190
S1130FD0002200F005FFBD4602B080BD80B582B09E
S1130FE000AF021CFB1D1A70FB1D1B78012B05D1E1
S1130FF004200021012200F0F3FE04E0042000217B
S1131000002200F0EDFEBD4602B080BD80B582B086
S113101000AF021CFB1D1A70FB1D1B78012B05D1B0
S113102003200121012200F0DBFE04E00320012162
S1131030002200F0D5FEBD4602B080BD80B582B06E
S113104000AF021CFB1D1A70FB1D1B78012B05D180
S113105003200321012200F0C3FE04E00320032146
S1131060002200F0BDFEBD4602B080BD80B582B056
S113107000AF0A1CFB1D011C1970BB1D1A70FB1D5F
S11310801B78012B19D1BB1D1B78012B0AD103201E
S11310900221002200F0A4FE03200021002200F01F
S11310A09FFE14E003200221012200F099FE032098
S11310B00021012200F094FE09E003200221012214
S11310C000F08EFE03200021002200F089FEBD46C0
S11310D002B080BD80B582B000AFFB1D00221A7043
S11310E0012000F051FC031C012B06D0102000F05D
S11310F04BFC031C012B00D0ACE00120002100F0CC
S11311004FFB1020002100F04BFB00F0B1F8031C52
S1131110012B32D0022B56D0002B00D07CE04F4B59
S11311205B221A7000F0A4F8031C3033DAB24B4B84
S11311305A704A4B5D229A70FB1D00221A700BE014
S1131140FB1D1B78454AD35C181C00F017FBFB1DE4
S1131150FA1D127801321A70FB1D1B78022BEFD98D
S11311600220012100F01CFB3D4B181C00F0F2FA98
S11311703C4B181C00F0EEFA6CE0384B5B221A7002
S113118000F076F8031C3033DAB2344B5A70334B28
S11311905D229A70FB1D00221A700BE0FB1D1B7868
S11311A02E4AD35C181C00F0E9FAFB1DFA1D1278D4
S11311B001321A70FB1D1B78022BEFD92A4B181C25
S11311C000F0C8FA46E0254B5B221A7000F050F894
S11311D0031C3033DAB2214B5A70204B5D229A70D3
S11311E0FB1D00221A700BE0FB1D1B781B4AD35C0D
S11311F0181C00F0C3FAFB1DFA1D127801321A7094
S1131200FB1D1B78022BEFD9184B181C00F0A2FA17
S1131210002000F037F81DE0104B5B221A700F4BD2
S113122033225A700D4B5D229A70FB1D00221A70F6
S11312300BE0FB1D1B78094AD35C181C00F09EFAD6
S1131240FB1DFA1D127801321A70FB1D1B78022B4C
S1131250EFD9C046BD4602B080BDC04660F0FF1F56
S1131260A02F0000B02F0000D42F0000E82F0000B2
S113127080B500AF024B1B78181CBD4680BDC0462C
S113128004F0FF1F80B582B000AF021CFB1D1A7072
S1131290FB1D1B78012B07D0022B09D0002B0BD18F
S11312A0094B00221A700BE0074B01221A7007E069
S11312B0054B02221A7003E0034B00221A70C04649
S11312C0BD4602B080BDC04604F0FF1FB0B586B075
S11312D000AF202000F058FB031C012B15D1E0497E
S11312E0002200230A604B60DE4B00221A70DE4BA2
S11312F000221A700220002100F052FA042000217A
S113130000F04EFA0020FFF7BDFFD74B1B78012BEE
S11313102FD0022B00D1EAE1002B00D00FE20420F1
S113132000F032FB031C012B1ED1082000F02CFB23
S1131330031C002B18D1022000F026FB031C012BF8
S113134016D1CA4B181C00F005FA0220002100F047
S113135027FA0420002100F023FA0120FFF792FF6E
S1131360C14B01221A7003E0BF4B02221A70E6E15E
S1131370E5E1BF4B9B79012B00D09DE1BC4BDB79B0
S1131380012B00D098E1B74B1B78112B00D9ACE1AD
S11313909A00B84BD3181B689F46B74B181C00F033
S11313A0D9F901200021FFF761FEAE4B01221A702A
S11313B081E1AF4B9B78002B00D043E1AF4B181C6D
S11313C000F0C8F900200021FFF750FEA54B0222CF
S11313D01A7037E1AA4B181C00F0BCF90120FFF782
S11313E0E5FD1E2001F056F9031C191C3961DB17B9
S11313F07B619B4B39697A6919605A60994B032266
S11314001A7058E1964B5C681B68181C211C01F08B
S113141027F9031C012B00D016E19A4B181C00F08D
S113142099F90020FFF7C2FD8E4B04221A700BE1DC
S1131430914B181C00F08EF901200021FFF716FED5
S1131440884B05221A7036E1894BDB78002B00D0DB
S1131450FCE08A4B181C00F07DF900200021FFF706
S113146005FE804B06221A70F0E0874B181C00F032
S113147071F90120FFF7CAFD1E2001F00BF9031CCE
S11314801A1CBA60DB17FB60754BB968FA681960FF
S11314905A60744B07221A700DE1714B5C681B682B
S11314A0181C211C01F0DCF8031C012B00D0CFE038
S11314B0764B181C00F04EF90020FFF7A7FD694B8E
S11314C008221A70C4E0724B181C00F043F9012082
S11314D00021FFF7CBFD634B09221A70EBE0644B4C
S11314E01B79002B00D0B5E0644B181C00F032F9D6
S11314F000200021FFF7BAFD5A4B0A221A70A9E016
S1131500644B181C00F026F90120FFF767FD1E202C
S113151001F0C0F8031C1A1C3A60DB177B60504BC7
S113152039687A6819605A604E4B0B221A70C2E00F
S11315304B4B5C681B68181C211C01F091F8031CC0
S1131540012B00D088E0544B181C00F003F9002054
S1131550FFF744FD434B0C221A707DE0464B181CE8
S113156000F0F8F801200021FFF780FD3D4B0D222B
S11315701A70A0E03E4B5B79002B6FD13F4B181CD7
S113158000F0E8F800200021FFF770FD354B0E2233
S11315901A7063E0414B181C00F0DCF80120FFF7DF
S11315A04DFD1E2001F076F8031C1C1CDB171D1CCE
S11315B02B4B1C605D602B4B0F221A707BE0284B79
S11315C05C681B68181C211C01F04AF8031C012BE1
S11315D06ED1334B181C00F0BDF80020FFF72EFD30
S11315E0204B10221A7063E02E4B181C00F0B2F846
S11315F02D4B181C00F0AEF801200121FFF736FD39
S1131600184B11221A7056E0194B5B78002B51D1FC
S11316101A4B181C00F09EF8244B181C00F09AF882
S113162000200021FFF722FD0E4B00221A700E4B02
S113163000221A700220FFF725FE1020012100F07D
S1131640AFF837E0C04636E0C04634E0C04632E08A
S1131650C04630E0C0462EE0C0462CE0C0462AE03A
S113166008F0FF1F10F0FF1F11F0FF1F00300000F3
S113167068F0FF1FF4310000143000002430000033
S1131680383000004C300000643000007C30000032
S113169098300000AC300000C4300000E43000009A
S11316A0FC30000010310000203100003C3100000B
S11316B0C04600E0C04618E0224B181C00F04AF86F
S11316C0214B181C00F046F800200021FFF7CEFC47
S11316D00020FFF76BFC0020FFF780FC0020FFF7E1
S11316E095FC0020FFF7AAFC29E0C04627E0012072
S11316F00121FFF7BBFC154B5B78002B07D0134B84
S11317009B79002B03D0114BDB79002B16D10020E1
S11317100021FFF7ABFC0D4B5B78002B0ED10B4B7C
S11317209B79012B0AD1094BDB79012B06D10420CB
S1131730012100F035F8064B00221A70C046BD4660
S113174006B0B0BD243000005031000068F0FF1F27
S113175011F0FF1F80B582B000AF786007E07B68AE
S11317601B787A6801327A60181C00F007F87B68ED
S11317701B78002BF3D1BD4602B080BD80B582B08A
S113178000AF021CFB1D1A70044AFB1D1B78101CC1
S1131790191C01F0B3F8BD4602B080BD00A006409C
S11317A080B582B000AF0A1CFB1D011C1970BB1D63
S11317B01A70FB1D1B78082B5DD006DC022B2AD087
S11317C0042B40D0012B0ED0D9E0202B00D181E096
S11317D002DC102B67D0D2E0402B00D191E0802BAB
S11317E000D1A5E0CBE0BB1D1B78012B06D1654BD6
S11317F01B7801221343DAB2624B1A70BB1D1B78AB
S1131800002B00D0ACE05F4B1B7801229343DAB28B
S11318105C4B1A70A4E0BB1D1B78012B06D1594BFD
S11318201B7802221343DAB2564B1A70BB1D1B7885
S1131830002B00D096E0534B1B7802229343DAB27C
S1131840504B1A708EE0BB1D1B78012B06D14D4BFB
S11318501B7804221343DAB24A4B1A70BB1D1B785F
S1131860002B00D080E0474B1B7804229343DAB26C
S1131870444B1A7078E0BB1D1B78012B06D1414BF9
S11318801B7808221343DAB23E4B1A70BB1D1B7837
S1131890002B00D06AE03B4B1B7808229343DAB25A
S11318A0384B1A7062E0BB1D1B78012B06D1354BF7
S11318B01B7810221343DAB2324B1A70BB1D1B780B
S11318C0002B55D12F4B1B7810229343DAB22D4BAA
S11318D01A704DE0BB1D1B78012B06D1294B1B78D8
S11318E020221343DAB2274B1A70BB1D1B78002B3E
S11318F040D1244B1B7820229343DAB2214B1A7037
S113190038E0BB1D1B78012B06D11E4B1B784022EF
S11319101343DAB21B4B1A70BB1D1B78002B2BD15F
S1131920184B1B7840229343DAB2164B1A7023E00B
S1131930BB1D1B78012B07D1124B1B78802252420E
S11319401343DAB20F4B1A70BB1D1B78002B15D151
S11319500C4B1A787F231340DAB20A4B1A700DE04D
S1131960C0460CE0C0460AE0C04608E0C04606E0B7
S1131970C04604E0C04602E0C04600E0C046BD46A2
S113198002B080BD16F0FF1F80B584B000AF021C0A
S1131990FB1D1A70FB1D1B78082B43D006DC022BA1
S11319A020D0042B2ED0012B0CD08BE0202B59D02F
S11319B002DC102B46D085E0402B63D0802B00D175
S11319C070E07FE0424B19783B1C0F3301220A4040
S11319D01A703B1C0F331B78012B01D1012372E0D9
S11319E0002370E03A4B19783B1C0F3302220A4063
S11319F01A703B1C0F331B78022B01D1012362E0C8
S1131A00002360E0324B19783B1C0F3304220A4058
S1131A101A703B1C0F331B78042B01D1012352E0B5
S1131A20002350E02A4B19783B1C0F3308220A404C
S1131A301A703B1C0F331B78082B01D1012342E0A1
S1131A40002340E0224B19783B1C0F3310220A403C
S1131A501A703B1C0F331B78102B01D1012332E089
S1131A60002330E01A4B19783B1C0F3320220A4024
S1131A701A703B1C0F331B78202B01D1012322E069
S1131A80002320E0124B19783B1C0F3340220A40FC
S1131A901A703B1C0F331B78402B01D1012312E039
S1131AA0002310E00A4B1A783B1C0F337F218A4332
S1131AB01A703B1C0F331B78802B01D1012302E0E9
S1131AC0002300E0FFE7181CBD4604B080BDC046FB
S1131AD016F0FF1F90B583B000AF041C081C111C46
S1131AE01A1CFB1D1C70BB1D18707B1D19703B1D3F
S1131AF01A70FB1D1B78042B00D954E19A00AB4BE0
S1131B00D3181B689F46AA4AA949AA4BCB588021DF
S1131B1089001943A74BD150A74BBA1D12789200E4
S1131B2080214900D1503B1D1B78012B0BD1A24BC6
S1131B30BA1D1278A049B81D0078800041580220CF
S1131B4001439200D1507B1D1B78012B0BD19B4B81
S1131B509A4A5169BA1D12780120041C9440221C2F
S1131B600A435A6116E17B1D1B78002B00D011E15A
S1131B70924B924A5269B91D09780120041C8C4089
S1131B80211CC9430A405A6104E1894A8849894BA6
S1131B90CB588021C9001943864BD150884BBA1DBC
S1131BA01278920080214900D1503B1D1B78012BF3
S1131BB00BD1814BBA1D12787F49B81D0078800083
S1131BC04158022001439200D1507B1D1B78012B08
S1131BD00BD17C4B7B4A5169BA1D12780120041C3D
S1131BE09440221C0A435A61D6E07B1D1B78002BCB
S1131BF000D0D1E0734B734A5269B91D09780120B2
S1131C00041C8C40211CC9430A405A61C4E0684A40
S1131C106749684BCB58802109011943654BD15062
S1131C20694BBA1D1278920080214900D1503B1DA6
S1131C301B78012B0BD1604BBA1D12785E49B81D7D
S1131C40007880004158022001439200D1507B1D4E
S1131C501B78012B0BD15D4B5C4A5169BA1D12787C
S1131C600120041C9440221C0A435A6196E07B1D07
S1131C701B78002B00D091E0544B544A5269B91D93
S1131C8009780120041C8C40211C0A405A6185E01B
S1131C90474A4749474BCB58802149011943454B93
S1131CA0D1504B4BBA1D1278920080214900D1507B
S1131CB03B1D1B78012B0BD13F4BBA1D12783E49BB
S1131CC0B81D007880004158022001439200D15091
S1131CD07B1D1B78012B0BD13E4B3E4A5169BA1D2B
S1131CE012780120041C9440221C0A435A6157E0D4
S1131CF07B1D1B78002B53D1364B364A5269B91DD4
S1131D0009780120041C8C40211CC9430A405A61F3
S1131D1046E0274A2649274BCB588021890119439D
S1131D20244BD1502C4BBA1D1278920080214900CB
S1131D30D1503B1D1B78012B0BD11F4BBA1D1278C0
S1131D401D49B81D007880004158022001439200CB
S1131D50D1507B1D1B78012B0BD1204B1F4A51699D
S1131D60BA1D12780120041C9440221C0A435A61B3
S1131D7018E07B1D1B78002B14D1184B174A5269AD
S1131D80B91D09780120041C8C40211CC9430A4058
S1131D905A6107E0C04606E0C04604E0C04602E0DF
S1131DA0C04600E0C046BD4603B090BD3C320000D2
S1131DB000700440381000000090044000F00F4010
S1131DC000A0044040F00F4000B0044080F00F40F9
S1131DD000C00440C0F00F4000D0044000F10F40A8
S1131DE090B583B000AFFB1D1870BB1D19707B1D2F
S1131DF01A70FB1D1B78042B00D9B4E09A005B4BCE
S1131E00D3181B689F467B1D1B78012B0BD1584BA5
S1131E10574A5168BA1D12780120041C9440221CB0
S1131E200A435A6096E07B1D1B78002B00D091E09A
S1131E304F4B4F4A1268B91D09780120041C8C408D
S1131E40211CC9430A401A6084E07B1D1B78012BC6
S1131E500BD1484B474A5168BA1D12780120041C23
S1131E609440221C0A435A6076E07B1D1B78002BA9
S1131E7000D071E03F4B3F4A1268B91D0978012038
S1131E80041C8C40211CC9430A401A6064E07B1D79
S1131E901B78012B0BD1384B374A5168BA1D127885
S1131EA00120041C9440221C0A435A6056E07B1D06
S1131EB01B78002B52D1304B2F4A1268B91D097878
S1131EC00120041C8C40211CC9430A401A6045E0CF
S1131ED07B1D1B78012B0BD1284B284A5168BA1D56
S1131EE012780120041C9440221C0A435A6037E0F3
S1131EF07B1D1B78002B33D1204B204A1268B91D5F
S1131F0009780120041C8C40211CC9430A401A6032
S1131F1026E07B1D1B78012B0BD1194B184A516805
S1131F20BA1D12780120041C9440221C0A435A60F2
S1131F3018E07B1D1B78002B14D1114B104A12683A
S1131F40B91D09780120041C8C40211CC9430A4096
S1131F501A6007E0C04606E0C04604E0C04602E05E
S1131F60C04600E0C046BD4603B090BD50320000FC
S1131F7000F00F4040F00F4080F00F40C0F00F40E1
S1131F8000F10F4080B582B000AF0A1CFB1D011C9C
S1131F901970BB1D1A70FB1D1B78042B45D89A00C1
S1131FA0244BD3181B689F46234B1B699BB2BA1D55
S1131FB012780121081C9040021C92B213409BB27B
S1131FC034E01E4B1B699BB2BA1D12780121081C18
S1131FD09040021C92B213409BB227E0184B1B693D
S1131FE09BB2BA1D12780121081C9040021C92B2C7
S1131FF013409BB21AE0134B1B699BB2BA1D1278B3
S11320000121081C9040021C92B213409BB20DE0C7
S11320100D4B1B699BB2BA1D12780121081C90401C
S1132020021C92B213409BB200E0FFE7181CBD46AD
S113203002B080BD6432000000F00F4040F00F4059
S113204080F00F40C0F00F4000F10F4080B586B023
S113205000AF7860081C111C1A1CFB1C1870BB1CF8
S113206019707B1C1A70C24B9B79DBB21A1C0C23AF
S113207013409B080DD1BE4B9B79DBB21A1C102375
S1132080134006D0BA4B9B79DBB21A1C20231340B1
S113209001D0012373E27A68B64B9A4201DD212311
S11320A06DE2BB1C1B78002B09D07A68B24B9A42B4
S11320B003DD7A68B14B9A4201DD22235FE2FB1C07
S11320C01B78002B02D0FB1C01221A707B1C1B788E
S11320D05BB2002B04DD7B1C1B785BB2192B01DD8A
S11320E041234CE23B1C20331B785BB2172B05DDEC
S11320F03B1C20331B785BB2322B01DD42233EE2D2
S11321007B1C1B785BB27868191CFEF7C7FB031CA9
S11321103B613A699A4B9A4203DD3A69994B9A4278
S113212001DD43232BE27B1C1B785BB27868191C0E
S1132130FEF7B4FB031C3A1C2032127852B253430C
S1132140FB60FA68904B9A4203DDFA688F4B9A421F
S113215001DD452313E2864A3B1C163352781A707C
S11321603B1C16333A1C163212783C218A431A70EF
S11321707A68874B9A4214DCFB1C1B78DB00DAB2CA
S1132180BB1C1B789B00DBB21343DAB23B1C163337
S11321901B781343DAB23B1C163310210A431A701E
S11321A013E0FB1C1B78DB00DAB2BB1C1B789B0022
S11321B0DBB21343DAB23B1C16331B781343DAB297
S11321C03B1C163320210A431A70694B3A1C163201
S11321D012785A707A686F4B9A4204DC3B1C1733AE
S11321E000221A7027E07A686B4B9A4204DC3B1C8D
S11321F0173301221A701EE07A68684B9A4204DC95
S11322003B1C173302221A7015E07A68644B9A4219
S113221004DC3B1C173303221A700CE07A68614B10
S11322209A4204DC3B1C173304221A7003E03B1C63
S1132230173305221A704E4A3B1C163312781A7053
S11322403B1C16333A1C1632117803220A401A70CA
S11322503B1C17331B78DB00DAB238231340DAB2A5
S11322603B1C16331B781343DAB23B1C1633802114
S113227049420A431A703E4B3A1C163212781A70BD
S1132280BB1C1B78002B24D03B1C143300221A8067
S11322900DE0374B9B79DBB21A1C022313400ED19D
S11322A03B1C14333A1C1432128801321A803B1C32
S11322B0143300215A5E3C4B9A42EADD00E0C046EA
S11322C02B4B9B79DBB21A1C0223134001D123232D
S11322D055E13B1C143300221A800DE0244B9B79FA
S11322E0DBB21A1C102313400ED03B1C14333A1CCF
S11322F01432128801321A803B1C143300215A5EB6
S11323002A4B9A42EADD00E0C046194B9B79DBB2C6
S11323101A1C1023134001D0112330E13B1C143349
S113232000221A800FE0124B9B79DBB21A1C0C239B
S113233013409B08022B0ED03B1C14333A1C14325E
S1132340128801321A803B1C143300215A5E174B49
S11323509A42E8DD00E0C046054B9B79DBB21A1CCB
S11323600C2313409B08022B22D01A2307E1C046FA
S11323700040064080F0FA02BFC62D000048E80184
S11323807F841E0000093D00FF6BDC0200E1F505BF
S113239000127A00D0121300A0252600404B4C00F6
S11323A080969800002D31011F4E0000CF070000D9
S11323B0754B754A5279D2B220210A43D2B25A716E
S11323C0714A3B1C163312791A703B1C16333A1CA3
S11323D0163212781F218A431A707B1C1B78013B2A
S11323E0DAB21F231340D9B23B1C16333A1C1632FF
S11323F012780A431A70644B3A1C163212781A7116
S1132400614A3B1C163352791A703B1C16333A1C32
S1132410163212781F218A431A703B1C20331B7812
S1132420183BDAB21F231340DAB23B1C16331B7875
S11324301343DAB23B1C163340210A431A70524B41
S11324403A1C163212785A713B1C143300221A803B
S11324500DE04D4B9B79DBB21A1C202313400ED1A7
S11324603B1C14333A1C1432128801321A803B1C70
S1132470143300215A5E454B9A42EADD00E0C0461F
S1132480414B9B79DBB21A1C2023134001D1162344
S113249075E03B1C143300221A800DE03A4B9B7903
S11324A0DBB21A1C402313400ED13B1C14333A1CDC
S11324B01432128801321A803B1C143300215A5EF4
S11324C0334B9A42EADD00E0C0462F4B9B79DBB2E6
S11324D01A1C4023134001D1442350E02A4B1B799A
S11324E0DAB21F231340DAB23B1C0B3301321A70E9
S11324F0254B5B79DAB21F231340DAB23B1C0A3353
S113250018321A70204B204A1278D1B23F220A4066
S1132510D2B21A703B1C143300221A800FE01A4BFB
S11325209B79DBB21A1C0C2313409B08032B0ED09F
S11325303B1C14333A1C1432128801321A803B1C9F
S1132540143300215A5E114B9A42E8DD00E0C04684
S11325500D4B9B79DBB21A1C0C2313409B08032BF5
S113256001D01B230BE03B1C0B331B787868191C30
S1132570FEF794F9031C3A1C0A3212785343181CD0
S1132580BD4606B080BDC04600400640CF070000EF
S11325909F0F000080B500AF154A1549154BCB5865
S11325A0802109041943134BD150134A80235B0043
S11325B08321C900D150104B01221A600E4A842392
S11325C05B000321D1500D4A0C49C0235B00CB585A
S11325D08021C9031943C0235B00D150074B074A2C
S11325E012688021C9030A431A60BD4680BDC046F3
S11325F0007004403C1000000070034000E100E063
S113260098B500AF124A124986235B00CB580121CA
S1132610194386235B00D150FEF712FA0D4B1B6859
S11326205A1C0C4B1A600B4B1A680B4B9A420CD970
S1132630084B00221A60094B19685A6801230024C8
S11326405B185441054A13605460BD4698BDC046AA
S11326500070034018F0FF1FDF2E000020F0FF1F62
S113266090B583B000AF38607960094B5C681B6833
S11326707A68A24207D87A68A24202D13A689A429A
S113268001D8012300E00023181CBD4603B090BD0F
S113269020F0FF1F90B583B000AF38607960064B1F
S11326A019685A683B687C685B185441181C211CE3
S11326B0BD4603B090BDC04620F0FF1F80B58EB06C
S11326C000AFF860B9607A6000237B6200233B634B
S11326D00023FB6200233B620023BB62814A8149E1
S11326E0814BCB588021C90019437F4BD1507F4B7C
S11326F07E4AD278D2B20C218A43D2B2DA70BA6856
S11327007B4B9A4202DCBB681F2B0EDC0023BB60B0
S1132710744A784BD3583B623A6A774B13403B6216
S1132720704A744B396AD150FEE77B68FB61BB6821
S1132730FA2292005343BB613B1C373304221A70C4
S11327403B1C37331B78FA695343B869191CFEF7ED
S113275057F8031C7B613B1C37331B787A6953435E
S1132760B869191CFEF74CF8031C7B627A6AFB6992
S11327709A4204D97A6AFB69D31A3B6303E0FA6983
S11327807B6AD31A3B633B1C37331B78FB623B1CCD
S1132790373305221A7033E03B1C37331B78FA6950
S11327A05343B869191CFEF72BF8031C7B613B1CCF
S11327B037331B787A695343B869191CFEF720F83C
S11327C0031C7B627A6AFB699A4204D97A6AFB69C0
S11327D0D31ABB6203E0FA697B6AD31ABB62BA6A92
S11327E03B6B9A4205D8BB6A3B633B1C37331B786F
S11327F0FB623B1C37333A1C3732127801321A70B1
S11328003B1C37331B78202BC6D9FB69181C642169
S1132810FDF7F6FF031C1A1C131C5B009A183B6B94
S11328209A425BD9FB6A032B0AD9FB6A082B07D8A7
S11328302E4B2E4AD27AD2B202210A43D2B2DA7293
S11328402A4B9B7ADBB23B623B6A1F2293433B6277
S1132850FB6ADBB2013BDBB21A1C1F2313403A6A4A
S113286013433B62214B3A6AD2B29A723A6A1F23EB
S1132870134001333B62FB693A6A5343B869191C3C
S1132880FDF7BEFF031C7B61184B1B78DBB21F22D4
S113289093433B62154B7969F82252010A40120AAC
S11328A0D1B21F220A40D1B23A6AD2B20A43D2B29A
S11328B01A700E4B7A69D2B25A700C4B0B4AD2780A
S11328C0D2B220210A43D2B2DA70084B074AD27836
S11328D0D2B20C210A43D2B2DA7000E0FEE7BD4660
S11328E00EB080BD007004403410000000A006400B
S11328F050C3000004100000FFFFFFF380B582B056
S113290000AF78600A1CFB1C1A70C0467B681B79F8
S1132910DBB2DBB25BB2002BF8DA7B68FA1C12780C
S1132920DA71BD4602B080BD80B582B000AFFB1D38
S113293000221A70304B1B79DBB21A1C202313407F
S113294057D02D4AFB1DD2791A702B4B1B79DBB261
S1132950DBB25BB2002B06DB274B1B79DBB21A1C04
S11329604023134003D0244BFA1D1278DA71FB1D67
S11329701B785B2B02D1214B00221A70FB1D1B78A4
S11329805D2B02D11D4B02221A701C4B1B78012BAC
S11329901DD0022B28D0002B2BD1194B00221A70EA
S11329A00AE0174B1B78174A0021D154144B1B78AB
S11329B00133DAB2124B1A70114B1B78072BF0D982
S11329C00E4B01221A700E4B00221A7011E00C4BB0
S11329D01B780C4AF91D0978D154094B1B78013333
S11329E0DAB2074B1A7004E001200121FEF7D8FE89
S11329F0C046BD4602B080BD00A0064028F0FF1FBF
S1132A0029F0FF1F58F0FF1F80B582B002AF3D4A86
S1132A103C493D4BCB58F821890119433A4BD150DD
S1132A20384A3A4B80214902D150394B182200923E
S1132A3001220192181C002101220423FFF706FB46
S1132A40021C344B1A60334B1B68181CFA23990080
S1132A50FDF724FF031C1A1C2F4B1A602E4B1B6816
S1132A601A1C2849294BCB581B0F0133101C191C65
S1132A70FDF7C6FE031C1A1C284B1A60274B1B6863
S1132A801A1C2049214BC958E023DB020B401B0CC4
S1132A900133101C191CFDF7B3FE031C1A1C204B38
S1132AA01A60184A17491F4BCB5880214902194311
S1132AB01C4BD1501C4B802292005A601A4B80222E
S1132AC092009A600F4A0F49164BCB588021C904D3
S1132AD01943144BD1500F4B1B68181CFA23D9000F
S1132AE0FDF7DCFE031C1A1C104B1A600F4B1A680E
S1132AF00F4996239B01081C111C1A1CFFF7DEFDCD
S1132B00BD4680BD00700440381000004410000031
S1132B1000127A0070F0FF1F84F0FF1F74F0FF1F93
S1132B2078F0FF1F04100000009004407CF0FF1FA9
S1132B3000A0064080B582B000AF78607B68202B8F
S1132B4001DDC04620E0124A7968124B0B4004D5DF
S1132B50013B202149420B4301330121081C9840C9
S1132B60031C191CC0235B00D150094A7968094B26
S1132B700B4004D5013B202149420B430133012181
S1132B80081C9840031C1360BD4602B080BDC046BB
S1132B9000E100E01F00008080B584B000AF7860E1
S1132BA039603B1C0F3300221A703B1C0E33002289
S1132BB01A703B1C0D3300221A707B68202B03DD36
S1132BC03B1C0F3301221A703B68032B03DD3B1CB3
S1132BD00F3301221A703B1C0F331B78012B2CD0AE
S1132BE07B68002B00DA03339B101A1C3B1C0E334A
S1132BF01A707A68124B134004D5013B04225242E6
S1132C00134301331A1C3B1C0D331A703B1C0E3347
S1132C101B789B000B481B18BB60BB681A683B6899
S1132C209901FF2319403B1C0D331B78DB00081C62
S1132C309840031C1A43BB681A60BD4604B080BDAB
S1132C400300008000E400E0B0B500AF01201221D1
S1132C5001220023FEF73EFF02200121012200236E
S1132C60FEF738FFFFF796FCFDF7C8FEFEF776F98E
S1132C7000200021FEF7FAF90020FEF797F9002062
S1132C80FEF7ACF90020FEF7C1F90020FEF7D6F9F3
S1132C9062B60C20FFF74EFF0C200221FFF77CFFE9
S1132CA0374B181CFEF756FD364B181CFEF752FD29
S1132CB0354B181CFEF74EFD344B181CFEF74AFD2D
S1132CC0FEF708FA324B1B78012B06D1FEF7FEFA09
S1132CD020200021FEF764FD24E020200121FEF7DE
S1132CE05FFD00200021FEF7C1F90020FEF75EF928
S1132CF00020FEF773F90020FEF788F90020FEF7A4
S1132D009DF9244B181CFEF725FD234B1B685A1C08
S1132D10214B1A60204B1A68204B9A4202D91E4B51
S1132D2000221A601E4B1B78002B02D0012B13D0FB
S1132D3025E0012012210122FFF752F80A20FFF7B3
S1132D40A9FC031C1C1CDB171D1C164B1C605D60BE
S1132D50134B01221A7012E0124B1A685B68101CA4
S1132D60191CFFF77DFC031C012B07D10C4B00221F
S1132D701A70012012210022FFF732F8C0469FE7A3
S1132D806C3100008431000098310000AC31000047
S1132D9068F0FF1FB03100002CF0FF1F1027000067
S1132DA030F0FF1F38F0FF1F38B5051C00F09CF809
S1132DB000F080F8084C2368002B02D098470020CC
S1132DC02060064C2168002902D088470022226036
S1132DD0281CFDF70DFE38BD40F0FF1F44F0FF1F17
S1132DE010B5041C00F002F8201C10BD30B5C9B2A7
S1132DF0031C1F2A31D944420323234005D0D21A8D
S1132E00C51801700130A842FBD1002905D00D0678
S1132E100C042C430B02214319435409031C002CBA
S1132E200ED0251C013D196059609960D960196163
S1132E3059619961D9612033002DF3D16301C3181D
S1132E40D006400F07D0041C1D1C013C02C5002CF9
S1132E50FBD180001B18032422409D18002A03D0B4
S1132E6019700133AB42FBD130BD000010B50B4CDF
S1132E700B4B9C4202D001CC8047F9E7094C0A482D
S1132E80844202D008CC9847F9E7084C08498C42A0
S1132E9002D004CC9047F9E710BDC0467832000058
S1132EA07832000078320000783200007832000076
S1132EB07832000010B5084C084B9C4202D004CC78
S1132EC09047F9E7064C0748844203D0043C216844
S1132ED08847F8E710BDC046783200007832000019
S1132EE07832000078320000054B10B51C68002CC5
S1132EF004D0A068616888472468F8E710BDC0461C
S1132F0048F0FF1F054B181C002805D0854681B0EA
S1132F100020C043009001B0F74670470030002005
S1132F20F746704700B588421FD0002A1DD00323FE
S1132F30194207D1184205D19A4203D908C9043A63
S1132F4008C0F2E70123194209D1184207D19A4275
S1132F5005D90B88023A038002310230E5E70B7889
S1132F60013A037001310130DFE700BD38B50B4D84
S1132F70002D11D000242B191968002906D02B1913
S1132F8058689A68FFF7CEFF0C34F4E75A68002AB1
S1132F90F5D198680028F2D138BDC04678320000D7
S1132FA00D0A52656365626575206461646F730020
S1132FB00D0A53657420466C61672070617261204C
S1132FC0696E6963696172206F2070726F636573E3
S1132FD0736F00000D0A4D617175696E61204F7544
S1132FE063757061646100000D0A50726F636573EC
S1132FF0736F2046696E616C697A61646F000000CA
S11330000D0A496E696369612070726F6365737339
S11330106F0000000D0A4C6967612045737465698F
S1133020726100000D0A4465736C69676120457321
S113303074656972610000000D0A4C696761204281
S11330406F6D6261206465204D656C000D0A4465F6
S1133050736C69676120426F6D6261206465204D05
S1133060656C00000D0A4C69676120426F6D6261F6
S113307020646520566F646B610000000D0A44658E
S1133080736C69676120426F6D62612064652056CC
S11330906F646B61000000000D0A4C696761206475
S11330A06520457374656972610000000D0A4C69FE
S11330B0676120426F6D62612064652045737465A9
S11330C0697261000D0A4465736C69676120426F1F
S11330D06D626120646520456E657267657469631D
S11330E06F0000000D0A4C69676120426F6D6261D8
S11330F020646520436F72616E7465000D0A446537
S1133100736C69676120436F72616E7465000000BF
S11331100D0A4C696761204573746569726120000A
S11331200D0A5265746F726E6120706F7369E7E304
S11331306F20696E696369616C0000000D0A506F4D
S11331407369E7E36F20496E696369616C0000008D
S11331500D0A4572726F206E6120706F7369636926
S11331606F6E616D656E746F000000000D0A507221
S11331706F6A65746F204D6F7374656320323031EC
S1133180360000000D0A4B695420646520417574B3
S11331906F6D6163616F00000D0A4D617175696E39
S11331A06120646520546368617900000D0A0000A1
S11331B00D0A426F74616F20646520456D65726706
S11331C0656E6369612070726563696F6E61646FB7
S11331D000000000580A0000F40A0000900B0000F0
S11331E02C0C0000C80C0000780D0000140E000028
S11331F0B00E00009A130000B2130000D4130000B4
S11332000414000030140000481400006A14000084
S11332109A140000C6140000DE140000001500001B
S1133220301500005C1500007415000094150000B2
S1133230BE150000E815000008160000061B00007B
S11332408A1B00000E1C0000901C0000121D0000D0
S1133250061E00004A1E00008E1E0000D01E000044
S1133260121F0000A81F0000C21F0000DC1F000086
S10B3270F61F0000102000000D
S11332787832000000F0FF1F00000000000000008A
S10B328800000000000000003A
S90309C132
