S01600004652444D2D4B4C32355A2D554152542E6865785F
S113000000300020C10900006109000061090000FE
S113001000000000000000000000000000000000DC
S11300200000000000000000000000006109000062
S113003000000000000000006109000061090000E8
S11300406109000061090000610900006109000004
S113005061090000610900006109000061090000F4
S113006061090000610900006109000061090000E4
S113007071260000610900006109000061090000A7
S113008061090000610900006109000061090000C4
S113009061090000610900001123000061090000EA
S11300A061090000610900006109000061090000A4
S11300B06109000061090000610900006109000094
S1130800002934D00123002210B488422CD30124BF
S11308102407A14204D2814202D209011B01F8E754
S1130820E400A14204D2814202D249005B00F8E70D
S1130830884201D3401A1A434C08A04202D3001B39
S11308405C0822438C08A04202D3001B9C0822436C
S1130850CC08A04202D3001BDC082243002803D0AA
S11308601B0901D00909E3E7101C10BC70470028DC
S113087001D00020C04307B4024802A140180290EE
S113088003BDC046D90000000029F0D003B5FFF72E
S1130890B9FF0EBC4243891A1847C046002941D00B
S11308A010B4041C4C40A44601230022002900D5A6
S11308B04942002800D5404288422CD30124240711
S11308C0A14204D2814202D209011B01F8E7E400EB
S11308D0A14204D2814202D249005B00F8E7884277
S11308E001D3401A1A434C08A04202D3001B5C08EF
S11308F022438C08A04202D3001B9C082243CC084C
S1130900A04202D3001BDC082243002803D01B09A9
S113091001D00909E3E7101C6446002C00D54042CD
S113092010BC7047002806D003DB0020C0434008F9
S113093001E08020000607B4024802A1401802909A
S113094003BDC046190000000029EBD003B5FFF732
S1130950A7FF0EBC4243891A1847C0467047C046D9
S113096080B500AF00BEBD4680BDC04680B500AFB7
S1130970064A0749074BD150074A88235B010021E7
S1130980D15001F0E5FEBD4680BDC04600E000E068
S113099000000000080D00000070044080B500AFA6
S11309A0054A064BD31A054A101C00211A1C02F0F2
S11309B05FF8BD4680BDC04670F0FF1F00F0FF1F0A
S11309C002F0E8F8FFF7D2FFFFF7E8FF02F016F9AC
S11309D002F094F802F0ECF8044B0020191C01F02A
S11309E0D7FF031C181C02F027F8C04600F0FF1FB5
S11309F080B582B000AF7860FEE7C04680B500AF36
S1130A00002005210122002300F022FF0020042100
S1130A100122002300F01CFF00200C2101220023EE
S1130A2000F016FF032004210122002300F010FF30
S1130A30032005210022012300F00AFFBD4680BDEA
S1130A4080B584B000AF021CFB1D1A703B1C0E3332
S1130A5000221A80FB1D1B78072B00D964E19A0041
S1130A60BE4BD3181B689F4600200521002201F0CD
S1130A7075F800200521002201F070F800200521FE
S1130A80002201F06BF803200421002201F066F833
S1130A903B1C0E3300221A8006E03B1C0E333A1C2A
S1130AA00E32128801321A803B1C0E331B88632BD2
S1130AB0F3D90320052101F023F9031CDBB249E13A
S1130AC000200521012201F049F80020052100221F
S1130AD001F044F800200521002201F03FF8032032
S1130AE00421002201F03AF83B1C0E3300221A8044
S1130AF006E03B1C0E333A1C0E32128801321A8077
S1130B003B1C0E331B88632BF3D90320052101F012
S1130B10F7F8031CDBB21DE100200521002201F0DF
S1130B201DF800200521012201F018F800200521FC
S1130B30002201F013F803200421002201F00EF832
S1130B403B1C0E3300221A8006E03B1C0E333A1C79
S1130B500E32128801321A803B1C0E331B88632B21
S1130B60F3D90320052101F0CBF8031CDBB2F1E03B
S1130B7000200521012200F0F1FF002005210122BF
S1130B8000F0ECFF00200521002200F0E7FF032025
S1130B900421002200F0E2FF3B1C0E3300221A80E5
S1130BA006E03B1C0E333A1C0E32128801321A80C6
S1130BB03B1C0E331B88632BF3D90320052101F062
S1130BC09FF8031CDBB2C5E000200521002200F0E1
S1130BD0C5FF00200521002200F0C0FF00200521F0
S1130BE0012200F0BBFF03200421002200F0B6FF25
S1130BF03B1C0E3300221A8006E03B1C0E333A1CC9
S1130C000E32128801321A803B1C0E331B88632B70
S1130C10F3D90320052101F073F8031CDBB299E03A
S1130C2000200521012200F099FF00200521002267
S1130C3000F094FF00200521012200F08FFF032023
S1130C400421002200F08AFF3B1C0E3300221A808C
S1130C5006E03B1C0E333A1C0E32128801321A8015
S1130C603B1C0E331B88632BF3D90320052101F0B1
S1130C7047F8031CDBB26DE000200521002200F0E0
S1130C806DFF00200521012200F068FF00200521EE
S1130C90012200F063FF03200421002200F05EFF24
S1130CA03B1C0E3300221A8006E03B1C0E333A1C18
S1130CB00E32128801321A803B1C0E331B88632BC0
S1130CC0F3D90320052101F01BF8031CDBB241E03A
S1130CD000200521012200F041FF0020052101220E
S1130CE000F03CFF00200521012200F037FF032023
S1130CF00421002200F032FF3B1C0E3300221A8034
S1130D0006E03B1C0E333A1C0E32128801321A8064
S1130D103B1C0E331B88632BF3D90320052100F001
S1130D20EFFF031CDBB215E000200521002200F0D8
S1130D3015FF00200521002200F010FF00200521EE
S1130D40002200F00BFF03200421012200F006FF23
S1130D50C046FFE7181CBD4604B080BD742C0000DB
S1130D6080B500AF042001210122002300F070FDB2
S1130D70042000210122002300F06AFD0320012148
S1130D800122002300F064FD03200321012200233B
S1130D9000F05EFD032002210122002300F058FD33
S1130DA0032000210122002300F052FDBD4680BD36
S1130DB080B582B000AF021CFB1D1A70FB1D1B78AE
S1130DC0012B05D104200121012200F0C7FE04E01B
S1130DD004200121002200F0C1FEBD4602B080BD06
S1130DE080B582B000AF021CFB1D1A70FB1D1B787E
S1130DF0012B05D104200021012200F0AFFE04E004
S1130E0004200021002200F0A9FEBD4602B080BDEE
S1130E1080B582B000AF021CFB1D1A70FB1D1B784D
S1130E20012B05D103200121012200F097FE04E0EB
S1130E3003200121002200F091FEBD4602B080BDD6
S1130E4080B582B000AF021CFB1D1A70FB1D1B781D
S1130E50012B05D103200321012200F07FFE04E0D1
S1130E6003200321002200F079FEBD4602B080BDBC
S1130E7080B582B000AF0A1CFB1D011C1970BB1D9C
S1130E801A70FB1D1B78012B19D1BB1D1B78012B7C
S1130E900AD103200221002200F060FE0320002179
S1130EA0002200F05BFE14E003200221012200F086
S1130EB055FE03200021012200F050FE09E003202A
S1130EC00221012200F04AFE03200021002200F04A
S1130ED045FEBD4602B080BD80B582B000AFFB1DAB
S1130EE000221A70012000F0C3FB031C012B00D068
S1130EF094E00120002100F0C7FA00F095F8031CEB
S1130F00012B29D0022B49D0002B69D1454B5B2200
S1130F101A7000F089F8031C3033DAB2414B5A706E
S1130F20404B5D229A70FB1D00221A700BE0FB1DE2
S1130F301B783C4AD35C181C00F094FAFB1DFA1D84
S1130F40127801321A70FB1D1B78022BEFD9022094
S1130F50012100F099FA61E0324B5B221A7000F033
S1130F6063F8031C3033DAB22E4B5A702D4B5D22DA
S1130F709A70FB1D00221A700BE0FB1D1B78294A96
S1130F80D35C181C00F06EFAFB1DFA1D12780132B6
S1130F901A70FB1D1B78022BEFD93FE0214B5B221B
S1130FA01A7000F041F8031C3033DAB21D4B5A704A
S1130FB01C4B5D229A70FB1D00221A700BE0FB1D76
S1130FC01B78184AD35C181C00F04CFAFB1DFA1D60
S1130FD0127801321A70FB1D1B78022BEFD91DE029
S1130FE0104B5B221A700F4B33225A700D4B5D224B
S1130FF09A70FB1D00221A700BE0FB1D1B78094A36
S1131000D35C181C00F02EFAFB1DFA1D1278013275
S11310101A70FB1D1B78022BEFD9C046BD4602B0E7
S113102080BDC04644F0FF1F80B500AF024B1B7863
S1131030181CBD4680BDC04604F0FF1F80B582B0B9
S113104000AF021CFB1D1A70FB1D1B78012B07D07F
S1131050022B09D0002B0BD1094B00221A700BE094
S1131060074B01221A7007E0054B02221A7003E0B5
S1131070034B00221A70C046BD4602B080BDC04674
S113108004F0FF1FB0B58EB000AFCE4B1B78012B20
S113109027D0022B00D1A1E1002B00D0C9E104200C
S11310A000F0E6FA031C012B16D1082000F0E0FA48
S11310B0031C002B10D1022000F0DAFA031C012BD0
S11310C00ED10220002100F0DFF90120FFF7B6FF66
S11310D0BD4B01221A7003E0BA4B02221A70A8E138
S11310E0A7E1BA4B9B79012B00D060E1B74BDB79C8
S11310F0012B00D05BE1B64B1B780F2B00D95FE1CD
S11311009A00B44BD3181B689F460120FFF750FE8A
S1131110FA239B00181C01F061F9031C3B63DB17E5
S11311207B63AD4B396B7A6B19605A60A84B012213
S11311301A703BE1A84B5C681B68181C211C01F069
S113114033F9031C012B00D021E10020FFF730FE0E
S11311509F4B02221A701AE101200021FFF788FE3A
S1131160FA239B00181C01F039F9031CBB62DB173E
S1131170FB62994BB96AFA6A19605A60944B03226C
S11311801A7013E1944B5C681B68181C211C01F055
S11311900BF9031C012B00D0FBE000200021FFF71A
S11311A067FE8B4B04221A70F3E00120FFF730FE38
S11311B0FA239B00181C01F011F9031C3B62DB1796
S11311C07B62854B396A7A6A19605A60804B0522C2
S11311D01A70EBE0804B5C681B68181C211C01F042
S11311E0E3F8031C012B00D0D5E00020FFF710FE2C
S11311F0774B06221A70CEE001200021FFF738FE5B
S1131200FA239B00181C01F0E9F8031C1A1CBA61AC
S1131210DB17FB61704BB969FA6919605A606C4B52
S113122007221A70C2E06C4B5C681B68181C211CF6
S113123001F0BAF8031C012B00D0AEE0002000211D
S1131240FFF716FE624B08221A70A6E00120FFF792
S1131250C7FDFA239B00181C01F0C0F8031C1A1CDC
S11312603A61DB177B615C4B39697A6919605A60B2
S1131270574B09221A7099E0574B5C681B68181C7D
S1131280211C01F091F8031C012B00D087E0002001
S1131290FFF7A6FD4E4B0A221A7080E001200021C0
S11312A0FFF7E6FDFA239B00181C01F097F8031CD6
S11312B01A1CBA60DB17FB60474BB968FA681960FF
S11312C05A60434B0B221A7070E0434B5C681B68F6
S11312D0181C211C01F068F8031C012B61D10020AB
S11312E00021FFF7C5FD3A4B0C221A7059E001208A
S11312F0FFF7A6FDFA239B00181C01F06FF8031CEE
S11313001A1C3A60DB177B60334B39687A681960C2
S11313105A602F4B0D221A7048E02F4B5C681B68F3
S1131320181C211C01F040F8031C012B3BD10020A8
S1131330FFF786FD264B0E221A7034E001200121AE
S1131340FFF796FDFA239B00181C01F047F8031CD5
S11313501C1CDB171D1C204B1C605D601C4B0F22EA
S11313601A7023E01C4B5C681B68181C211C01F0DC
S11313701BF8031C012B18D100200021FFF778FD76
S1131380134B00221A700F4B00221A700DE0C04656
S11313900CE0C0460AE0C04608E0C04606E0C0468D
S11313A004E0C04602E0C04600E0C04608E0002079
S11313B00021FFF75DFD0820012100F065F838E009
S11313C0C04636E005F0FF1F04F0FF1F4CF0FF1F7E
S11313D006F0FF1F942C000008F0FF1F01200121DC
S11313E0FFF746FD144B5B78002B07D0124B9B791B
S11313F0002B03D0104BDB79002B19D100200021E6
S1131400FFF736FD0C4B5B78002B0DD10A4B9B7913
S1131410012B09D1084BDB79012B05D104200121D3
S113142000F032F8C04603E00820012100F02CF857
S1131430C046BD460EB0B0BD4CF0FF1F80B582B0B3
S113144000AF786007E07B681B787A6801327A60C5
S1131450181C00F007F87B681B78002BF3D1BD46FD
S113146002B080BD80B582B000AF021CFB1D1A70B3
S1131470044AFB1D1B78101C191C01F0E3F8BD463F
S113148002B080BD00A0064080B582B000AF0A1C47
S1131490FB1D011C1970BB1D1A70FB1D1B78082B4A
S11314A05DD006DC022B2AD0042B40D0012B0ED0B9
S11314B0D9E0202B00D181E002DC102B67D0D2E0F0
S11314C0402B00D191E0802B00D1A5E0CBE0BB1DE7
S11314D01B78012B06D1654B1B7801221343DAB22A
S11314E0624B1A70BB1D1B78002B00D0ACE05F4B25
S11314F01B7801229343DAB25C4B1A70A4E0BB1D43
S11315001B78012B06D1594B1B7802221343DAB204
S1131510564B1A70BB1D1B78002B00D096E0534B22
S11315201B7802229343DAB2504B1A708EE0BB1D33
S11315301B78012B06D14D4B1B7804221343DAB2DE
S11315404A4B1A70BB1D1B78002B00D080E0474B20
S11315501B7804229343DAB2444B1A7078E0BB1D23
S11315601B78012B06D1414B1B7808221343DAB2B6
S11315703E4B1A70BB1D1B78002B00D06AE03B4B1E
S11315801B7808229343DAB2384B1A7062E0BB1D11
S11315901B78012B06D1354B1B7810221343DAB28A
S11315A0324B1A70BB1D1B78002B55D12F4B1B7867
S11315B010229343DAB22D4B1A704DE0BB1D1B78F9
S11315C0012B06D1294B1B7820221343DAB2274B77
S11315D01A70BB1D1B78002B40D1244B1B78202292
S11315E09343DAB2214B1A7038E0BB1D1B78012BF0
S11315F006D11E4B1B7840221343DAB21B4B1A70E0
S1131600BB1D1B78002B2BD1184B1B784022934316
S1131610DAB2164B1A7023E0BB1D1B78012B07D1DD
S1131620124B1B78802252421343DAB20F4B1A70CA
S1131630BB1D1B78002B15D10C4B1A787F2313404C
S1131640DAB20A4B1A700DE0C0460CE0C0460AE05C
S1131650C04608E0C04606E0C04604E0C04602E0DA
S1131660C04600E0C046BD4602B080BD10F0FF1F7A
S113167080B584B000AF021CFB1D1A70FB1D1B78E3
S1131680082B43D006DC022B20D0042B2ED0012BB8
S11316900CD08BE0202B59D002DC102B46D085E0F7
S11316A0402B63D0802B00D170E07FE0424B19784F
S11316B03B1C0F3301220A401A703B1C0F331B786A
S11316C0012B01D1012372E0002370E03A4B197819
S11316D03B1C0F3302220A401A703B1C0F331B7849
S11316E0022B01D1012362E0002360E0324B197820
S11316F03B1C0F3304220A401A703B1C0F331B7827
S1131700042B01D1012352E0002350E02A4B197825
S11317103B1C0F3308220A401A703B1C0F331B7802
S1131720082B01D1012342E0002340E0224B197829
S11317303B1C0F3310220A401A703B1C0F331B78DA
S1131740102B01D1012332E0002330E01A4B197829
S11317503B1C0F3320220A401A703B1C0F331B78AA
S1131760202B01D1012322E0002320E0124B197821
S11317703B1C0F3340220A401A703B1C0F331B786A
S1131780402B01D1012312E0002310E00A4B1A7808
S11317903B1C0F337F218A431A703B1C0F331B7889
S11317A0802B01D1012302E0002300E0FFE7181C95
S11317B0BD4604B080BDC04610F0FF1F80B500AF29
S11317C01D4A1D491D4BCB58A021490119431B4BF0
S11317D0D1501B4B802252009A641A4B194A52680A
S11317E08021C9020A435A60164B164A5269802165
S11317F0C9020A435A61124B80225200DA64114B27
S1131800104A5268802109030A435A600D4B0D4A5D
S11318105269802109030A435A610B4B802252000A
S11318205A600A4B02225A60084B084A5269022144
S11318300A435A61BD4680BD007004403810000060
S113184000A0044040F00F4000C00440C0F00F402E
S113185090B583B000AF041C081C111C1A1CFB1D9E
S11318601C70BB1D18707B1D19703B1D1A70FB1D6D
S11318701B78042B00D954E19A00AB4BD3181B6896
S11318809F46AA4AA949AA4BCB58802189001943EB
S1131890A74BD150A74BBA1D127892008021490062
S11318A0D1503B1D1B78012B0BD1A24BBA1D1278D2
S11318B0A049B81D007880004158022001439200DD
S11318C0D1507B1D1B78012B0BD19B4B9A4A51693C
S11318D0BA1D12780120041C9440221C0A435A6148
S11318E016E17B1D1B78002B00D011E1924B924A2C
S11318F05269B91D09780120041C8C40211CC9437C
S11319000A405A6104E1894A8849894BCB588021AD
S1131910C9001943864BD150884BBA1D12789200E6
S113192080214900D1503B1D1B78012B0BD1814BE9
S1131930BA1D12787F49B81D0078800041580220F2
S113194001439200D1507B1D1B78012B0BD17C4BA2
S11319507B4A5169BA1D12780120041C9440221C50
S11319600A435A61D6E07B1D1B78002B00D0D1E0DE
S1131970734B734A5269B91D09780120041C8C40C9
S1131980211CC9430A405A61C4E0684A6749684B4C
S1131990CB58802109011943654BD150694BBA1DBD
S11319A01278920080214900D1503B1D1B78012BF5
S11319B00BD1604BBA1D12785E49B81D00788000C7
S11319C04158022001439200D1507B1D1B78012B0A
S11319D00BD15D4B5C4A5169BA1D12780120041C7D
S11319E09440221C0A435A6196E07B1D1B78002B0D
S11319F000D091E0544B544A5269B91D0978012032
S1131A00041C8C40211C0A405A6185E0474A47491E
S1131A10474BCB58802149011943454BD1504B4B7F
S1131A20BA1D1278920080214900D1503B1D1B78C9
S1131A30012B0BD13F4BBA1D12783E49B81D0078DB
S1131A4080004158022001439200D1507B1D1B7835
S1131A50012B0BD13E4B3E4A5169BA1D127801202D
S1131A60041C9440221C0A435A6157E07B1D1B78D6
S1131A70002B53D1364B364A5269B91D09780120DF
S1131A80041C8C40211CC9430A405A6146E0274A81
S1131A902649274BCB58802189011943244BD15027
S1131AA02C4BBA1D1278920080214900D1503B1D65
S1131AB01B78012B0BD11F4BBA1D12781D49B81D81
S1131AC0007880004158022001439200D1507B1DD0
S1131AD01B78012B0BD1204B1F4A5169BA1D127878
S1131AE00120041C9440221C0A435A6118E07B1D07
S1131AF01B78002B14D1184B174A5269B91D097869
S1131B000120041C8C40211CC9430A405A6107E08F
S1131B10C04606E0C04604E0C04602E0C04600E01D
S1131B20C046BD4603B090BDD42C000000700440F4
S1131B30381000000090044000F00F4000A0044062
S1131B4040F00F4000B0044080F00F4000C004405B
S1131B50C0F00F4000D0044000F10F4090B583B0B6
S1131B6000AFFB1D1870BB1D19707B1D1A70FB1D87
S1131B701B78042B00D9B4E09A005B4BD3181B6884
S1131B809F467B1D1B78012B0BD1584B574A51683C
S1131B90BA1D12780120041C9440221C0A435A6086
S1131BA096E07B1D1B78002B00D091E04F4B4F4AF1
S1131BB01268B91D09780120041C8C40211CC943FA
S1131BC00A401A6084E07B1D1B78012B0BD1484B23
S1131BD0474A5168BA1D12780120041C9440221C03
S1131BE00A435A6076E07B1D1B78002B00D071E01D
S1131BF03F4B3F4A1268B91D09780120041C8C40F0
S1131C00211CC9430A401A6064E07B1D1B78012B28
S1131C100BD1384B374A5168BA1D12780120041C85
S1131C209440221C0A435A6056E07B1D1B78002B0B
S1131C3052D1304B2F4A1268B91D09780120041C77
S1131C408C40211CC9430A401A6045E07B1D1B7867
S1131C50012B0BD1284B284A5168BA1D1278012058
S1131C60041C9440221C0A435A6037E07B1D1B78F5
S1131C70002B33D1204B204A1268B91D097801206A
S1131C80041C8C40211CC9430A401A6026E07B1DB9
S1131C901B78012B0BD1194B184A5168BA1D1278C5
S1131CA00120041C9440221C0A435A6018E07B1D46
S1131CB01B78002B14D1114B104A1268B91D0978F6
S1131CC00120041C8C40211CC9430A401A6007E00F
S1131CD0C04606E0C04604E0C04602E0C04600E05C
S1131CE0C046BD4603B090BDE82C000000F00F4094
S1131CF040F00F4080F00F40C0F00F4000F10F4063
S1131D0080B582B000AF0A1CFB1D011C1970BB1DFD
S1131D101A70FB1D1B78042B45D89A00244BD3184A
S1131D201B689F46234B1B699BB2BA1D1278012185
S1131D30081C9040021C92B213409BB234E01E4B2C
S1131D401B699BB2BA1D12780121081C9040021C29
S1131D5092B213409BB227E0184B1B699BB2BA1D89
S1131D6012780121081C9040021C92B213409BB2CD
S1131D701AE0134B1B699BB2BA1D12780121081C8F
S1131D809040021C92B213409BB20DE00D4B1B69B4
S1131D909BB2BA1D12780121081C9040021C92B219
S1131DA013409BB200E0FFE7181CBD4602B080BDA3
S1131DB0FC2C000000F00F4040F00F4080F00F407A
S1131DC0C0F00F4000F10F4080B586B000AF7860DE
S1131DD0081C111C1A1CFB1C1870BB1C19707B1CE2
S1131DE01A70C24B9B79DBB21A1C0C2313409B085C
S1131DF00DD1BE4B9B79DBB21A1C1023134006D0C5
S1131E00BA4B9B79DBB21A1C2023134001D0012367
S1131E1073E27A68B64B9A4201DD21236DE2BB1C62
S1131E201B78002B09D07A68B24B9A4203DD7A689A
S1131E30B14B9A4201DD22235FE2FB1C1B78002B8D
S1131E4002D0FB1C01221A707B1C1B785BB2002B96
S1131E5004DD7B1C1B785BB2192B01DD41234CE2B2
S1131E603B1C20331B785BB2172B05DD3B1C203356
S1131E701B785BB2322B01DD42233EE27B1C1B78D4
S1131E805BB27868191CFEF709FD031C3B613A69D3
S1131E909A4B9A4203DD3A69994B9A4201DD4323F6
S1131EA02BE27B1C1B785BB27868191CFEF7F6FCEE
S1131EB0031C3A1C2032127852B25343FB60FA6876
S1131EC0904B9A4203DDFA688F4B9A4201DD452319
S1131ED013E2864A3B1C163352781A703B1C1633A5
S1131EE03A1C163212783C218A431A707A68874B5E
S1131EF09A4214DCFB1C1B78DB00DAB2BB1C1B7897
S1131F009B00DBB21343DAB23B1C16331B7813433A
S1131F10DAB23B1C163310210A431A7013E0FB1C7F
S1131F201B78DB00DAB2BB1C1B789B00DBB21343CB
S1131F30DAB23B1C16331B781343DAB23B1C16335C
S1131F4020210A431A70694B3A1C163212785A70CF
S1131F507A686F4B9A4204DC3B1C173300221A70D8
S1131F6027E07A686B4B9A4204DC3B1C173301224E
S1131F701A701EE07A68684B9A4204DC3B1C1733E3
S1131F8002221A7015E07A68644B9A4204DC3B1C06
S1131F90173303221A700CE07A68614B9A4204DC0E
S1131FA03B1C173304221A7003E03B1C1733052231
S1131FB01A704E4A3B1C163312781A703B1C1633A7
S1131FC03A1C1632117803220A401A703B1C17334C
S1131FD01B78DB00DAB238231340DAB23B1C163329
S1131FE01B781343DAB23B1C1633802149420A435F
S1131FF01A703E4B3A1C163212781A70BB1C1B78AE
S1132000002B24D03B1C143300221A800DE0374BE4
S11320109B79DBB21A1C022313400ED13B1C1433F0
S11320203A1C1432128801321A803B1C14330021EA
S11320305A5E3C4B9A42EADD00E0C0462B4B9B794A
S1132040DBB21A1C0223134001D1232355E13B1CAC
S1132050143300221A800DE0244B9B79DBB21A1C46
S1132060102313400ED03B1C14333A1C1432128834
S113207001321A803B1C143300215A5E2A4B9A42C7
S1132080EADD00E0C046194B9B79DBB21A1C102331
S1132090134001D0112330E13B1C143300221A8079
S11320A00FE0124B9B79DBB21A1C0C2313409B08E4
S11320B0022B0ED03B1C14333A1C1432128801320A
S11320C01A803B1C143300215A5E174B9A42E8DDF8
S11320D000E0C046054B9B79DBB21A1C0C2313406D
S11320E09B08022B22D01A2307E1C0460040064079
S11320F080F0FA02BFC62D000048E8017F841E006C
S113210000093D00FF6BDC0200E1F50500127A00D6
S1132110D0121300A0252600404B4C008096980056
S1132120002D31011F4E0000CF070000754B754A8A
S11321305279D2B220210A43D2B25A71714A3B1C5D
S1132140163312791A703B1C16333A1C1632127865
S11321501F218A431A707B1C1B78013BDAB21F23B0
S11321601340D9B23B1C16333A1C163212780A4378
S11321701A70644B3A1C163212781A71614A3B1C6D
S1132180163352791A703B1C16333A1C16321278E5
S11321901F218A431A703B1C20331B78183BDAB288
S11321A01F231340DAB23B1C16331B781343DAB2F5
S11321B03B1C163340210A431A70524B3A1C163208
S11321C012785A713B1C143300221A800DE04D4BD7
S11321D09B79DBB21A1C202313400ED13B1C143311
S11321E03A1C1432128801321A803B1C1433002129
S11321F05A5E454B9A42EADD00E0C046414B9B796A
S1132200DBB21A1C2023134001D1162375E03B1CBA
S1132210143300221A800DE03A4B9B79DBB21A1C6E
S1132220402313400ED13B1C14333A1C1432128841
S113223001321A803B1C143300215A5E334B9A42FC
S1132240EADD00E0C0462F4B9B79DBB21A1C402329
S1132250134001D1442350E02A4B1B79DAB21F23E7
S11322601340DAB23B1C0B3301321A70254B5B79F5
S1132270DAB21F231340DAB23B1C0A3318321A7045
S1132280204B204A1278D1B23F220A40D2B21A70AF
S11322903B1C143300221A800FE01A4B9B79DBB2EB
S11322A01A1C0C2313409B08032B0ED03B1C143325
S11322B03A1C1432128801321A803B1C1433002158
S11322C05A5E114B9A42E8DD00E0C0460D4B9B7903
S11322D0DBB21A1C0C2313409B08032B01D01B23D5
S11322E00BE03B1C0B331B787868191CFEF7D6FAFD
S11322F0031C3A1C0A3212785343181CBD4606B01C
S113230080BDC04600400640CF0700009F0F00007C
S113231098B500AF1E4A1E4986235B00CB580121A5
S1132320194386235B00D1501A4B19685A6801235C
S113233000245B185441174A13605460164B1B88E1
S113234001339AB2144B1A80134B1A88134B9A42D6
S11323501BD9114B00221A80114B1B781C1C104BEB
S11323601B78181CFEF76CFB031CDAB20D4B1A55D4
S11323700B4B1B780133DAB2094B1A70084B1B78EC
S1132380072B02D9064B00221A70BD4698BDC046E1
S11323900070034018F0FF1F12F0FF1FE703000056
S11323A014F0FF1F4CF0FF1F90B583B000AF3860EE
S11323B07960094B5C681B687A68A24207D87A681E
S11323C0A24202D13A689A4201D8012300E00023D4
S11323D0181CBD4603B090BD18F0FF1F90B583B024
S11323E000AF38607960064B19685A683B687C68AE
S11323F05B185441181C211CBD4603B090BDC04657
S113240018F0FF1F80B58EB000AFF860B9607A6035
S113241000237B6200233B630023FB6200233B62B7
S11324200023BB62814A8149814BCB588021C9007A
S113243019437F4BD1507F4B7E4AD278D2B20C21C4
S11324408A43D2B2DA70BA687B4B9A4202DCBB6828
S11324501F2B0EDC0023BB60744A784BD3583B62BD
S11324603A6A774B13403B62704A744B396AD150D5
S1132470FEE77B68FB61BB68FA2292005343BB61B1
S11324803B1C373304221A703B1C37331B78FA6920
S11324905343B869191CFEF7B3F9031C7B613B1C59
S11324A037331B787A695343B869191CFEF7A8F9C6
S11324B0031C7B627A6AFB699A4204D97A6AFB69D3
S11324C0D31A3B6303E0FA697B6AD31A3B633B1C70
S11324D037331B78FB623B1C373305221A7033E019
S11324E03B1C37331B78FA695343B869191CFEF750
S11324F087F9031C7B613B1C37331B787A69534390
S1132500B869191CFEF77CF9031C7B627A6AFB69C3
S11325109A4204D97A6AFB69D31ABB6203E0FA6966
S11325207B6AD31ABB62BA6A3B6B9A4205D8BB6A10
S11325303B633B1C37331B78FB623B1C37333A1C31
S11325403732127801321A703B1C37331B78202B38
S1132550C6D9FB69181C6421FEF752F9031C1A1C26
S1132560131C5B009A183B6B9A425BD9FB6A032BE2
S11325700AD9FB6A082B07D82E4B2E4AD27AD2B23C
S113258002210A43D2B2DA722A4B9B7ADBB23B6253
S11325903B6A1F2293433B62FB6ADBB2013BDBB223
S11325A01A1C1F2313403A6A13433B62214B3A6AB5
S11325B0D2B29A723A6A1F23134001333B62FB6919
S11325C03A6A5343B869191CFEF71AF9031C7B6174
S11325D0184B1B78DBB21F2293433B62154B79697E
S11325E0F82252010A40120AD1B21F220A40D1B283
S11325F03A6AD2B20A43D2B21A700E4B7A69D2B294
S11326005A700C4B0B4AD278D2B220210A43D2B270
S1132610DA70084B074AD278D2B20C210A43D2B2FC
S1132620DA7000E0FEE7BD460EB080BD00700440E5
S11326303410000000A0064050C300000410000045
S1132640FFFFFFF380B582B000AF78600A1CFB1C6B
S11326501A70C0467B681B79DBB2DBB25BB2002B1D
S1132660F8DA7B68FA1C1278DA71BD4602B080BDD4
S113267080B582B000AFFB1D00221A70304B1B796D
S1132680DBB21A1C2023134057D02D4AFB1DD279EC
S11326901A702B4B1B79DBB2DBB25BB2002B06DB6F
S11326A0274B1B79DBB21A1C4023134003D0244B65
S11326B0FA1D1278DA71FB1D1B785B2B02D1214BBA
S11326C000221A70FB1D1B785D2B02D11D4B0222C8
S11326D01A701C4B1B78012B1DD0022B28D0002B09
S11326E02BD1194B00221A700AE0174B1B78174A9A
S11326F00021D154144B1B780133DAB2124B1A70F7
S1132700114B1B78072BF0D90E4B01221A700E4B7C
S113271000221A7011E00C4B1B780C4AF91D097841
S1132720D154094B1B780133DAB2074B1A7004E019
S113273001200121FEF7A8FEC046BD4602B080BDBF
S113274000A0064020F0FF1F21F0FF1F3CF0FF1FF8
S113275080B582B002AF3D4A3C493D4BCB58F8218D
S1132760890119433A4BD150384A3A4B80214902E6
S1132770D150394B1822009201220192181C0021D9
S113278001220423FFF720FB021C344B1A60334B55
S11327901B68181CFA239900FEF780F8031C1A1C06
S11327A02F4B1A602E4B1B681A1C2849294BCB58F7
S11327B01B0F0133101C191CFEF722F8031C1A1CF2
S11327C0284B1A60274B1B681A1C2049214BC958F7
S11327D0E023DB020B401B0C0133101C191CFEF719
S11327E00FF8031C1A1C204B1A60184A17491F4B78
S11327F0CB588021490219431C4BD1501C4B8022D9
S113280092005A601A4B802292009A600F4A0F4934
S1132810164BCB588021C9041943144BD1500F4B8C
S11328201B68181CFA23D900FEF738F8031C1A1C7D
S1132830104B1A600F4B1A680F4996239B01081C12
S1132840111C1A1CFFF7DEFDBD4680BD007004405C
S1132850381000004410000000127A0054F0FF1FEA
S113286068F0FF1F58F0FF1F5CF0FF1F041000000A
S11328700090044060F0FF1F00A0064080B582B0C5
S113288000AF78607B68202B01DDC04620E0124A4F
S11328907968124B0B4004D5013B202149420B437C
S11328A001330121081C9840031C191CC0235B0040
S11328B0D150094A7968094B0B4004D5013B2021CA
S11328C049420B4301330121081C9840031C136047
S11328D0BD4602B080BDC04600E100E01F0000809C
S11328E080B584B000AF786039603B1C0F330022A0
S11328F01A703B1C0E3300221A703B1C0D3300224D
S11329001A707B68202B03DD3B1C0F3301221A70E5
S11329103B68032B03DD3B1C0F3301221A703B1C65
S11329200F331B78012B2CD07B68002B00DA033388
S11329309B101A1C3B1C0E331A707A68124B1340FE
S113294004D5013B04225242134301331A1C3B1C9D
S11329500D331A703B1C0E331B789B000B481B185D
S1132960BB60BB681A683B689901FF2319403B1C94
S11329700D331B78DB00081C9840031C1A43BB680A
S11329801A60BD4604B080BD0300008000E400E08E
S113299080B582B000AF00237B60FEF70FFFFEF727
S11329A02DF8FEF7DDF900200021FEF761FA002082
S11329B0FEF7FEF90020FEF713FA0020FEF728FACE
S11329C00020FEF73DFA62B60C20FFF757FF0C20FB
S11329D00221FFF785FF124B181CFEF72FFD114B48
S11329E0181CFEF72BFD104B181CFEF727FD0F4B90
S11329F0181CFEF723FD00E0C046FEF76DFAFEF753
S1132A0041FB7B6801337B607A68094B9A42F3DDB2
S1132A10084B80221203DA6000237B60ECE7C04697
S1132A20302C0000482C00005C2C0000702C0000AE
S1132A309F86010040F00F4038B5051C00F09CF85B
S1132A4000F080F8084C2368002B02D0984700203F
S1132A502060064C2168002902D0884700222260A9
S1132A60281CFDF7C5FF38BD24F0FF1F28F0FF1F09
S1132A7010B5041C00F002F8201C10BD30B5C9B21A
S1132A80031C1F2A31D944420323234005D0D21A00
S1132A90C51801700130A842FBD1002905D00D06EC
S1132AA00C042C430B02214319435409031C002C2E
S1132AB00ED0251C013D196059609960D9601961D7
S1132AC059619961D9612033002DF3D16301C31891
S1132AD0D006400F07D0041C1D1C013C02C5002C6D
S1132AE0FBD180001B18032422409D18002A03D028
S1132AF019700133AB42FBD130BD000010B50B4C53
S1132B000B4B9C4202D001CC8047F9E7094C0A48A0
S1132B10844202D008CC9847F9E7084C08498C4213
S1132B2002D004CC9047F9E710BDC046102D000038
S1132B30102D0000102D0000102D0000102D00009D
S1132B40102D000010B5084C084B9C4202D004CC58
S1132B509047F9E7064C0748844203D0043C2168B7
S1132B608847F8E710BDC046102D0000102D000066
S1132B70102D0000102D0000054B10B51C68002C12
S1132B8004D0A068616888472468F8E710BDC0468F
S1132B902CF0FF1F054B181C002805D0854681B07A
S1132BA00020C043009001B0F74670470030002079
S1132BB0F746704700B588421FD0002A1DD0032372
S1132BC0194207D1184205D19A4203D908C9043AD7
S1132BD008C0F2E70123194209D1184207D19A42E9
S1132BE005D90B88023A038002310230E5E70B78FD
S1132BF0013A037001310130DFE700BD38B50B4DF8
S1132C00002D11D000242B191968002906D02B1986
S1132C1058689A68FFF7CEFF0C34F4E75A68002A24
S1132C20F5D198680028F2D138BDC046102D0000B7
S1132C300D0A50726F6A65746F204D6F737465630B
S1132C4020323031360000000D0A4B69542064658F
S1132C50204175746F6D6163616F00000D0A4D61F1
S1132C607175696E61206465205463686179000040
S1132C700D0A0000680A0000C00A0000180B0000DA
S1132C80700B0000C80B0000200C0000780C000042
S1132C90D00C00000A11000034110000581100008B
S1132CA084110000AA110000D4110000F8110000E2
S1132CB0261200004C120000781200009C12000042
S1132CC0CA120000EE1200001A1300003C130000A8
S1132CD06413000082180000061900008A1900001D
S1132CE00C1A00008E1A0000821B0000C61B000094
S1132CF00A1C00004C1C00008E1C0000241D000057
S1132D003E1D0000581D0000721D00008C1D0000B7
S1132D10102D000000F0FF1F000000000000000064
S10B2D200000000000000000A7
S90309C132
